{
  "abi": [
    {
      "inputs": [
        {
          "internalType": "address",
          "name": "_treasuryWallet",
          "type": "address"
        },
        {
          "internalType": "address",
          "name": "_communityFund",
          "type": "address"
        },
        {
          "internalType": "address",
          "name": "_investorsAccount",
          "type": "address"
        }
      ],
      "stateMutability": "payable",
      "type": "constructor"
    },
    {
      "inputs": [],
      "name": "notOwner",
      "type": "error"
    },
    {
      "inputs": [],
      "name": "transferToAddress0",
      "type": "error"
    },
    {
      "inputs": [],
      "name": "transferedFail",
      "type": "error"
    },
    {
      "anonymous": false,
      "inputs": [
        {
          "indexed": false,
          "internalType": "uint256",
          "name": "tres",
          "type": "uint256"
        },
        {
          "indexed": false,
          "internalType": "uint256",
          "name": "comm",
          "type": "uint256"
        },
        {
          "indexed": false,
          "internalType": "uint256",
          "name": "owner",
          "type": "uint256"
        },
        {
          "indexed": false,
          "internalType": "uint256",
          "name": "investor",
          "type": "uint256"
        }
      ],
      "name": "transferAll",
      "type": "event"
    },
    {
      "inputs": [],
      "name": "calculateCommunityFund",
      "outputs": [
        {
          "internalType": "uint256",
          "name": "communityAllocation",
          "type": "uint256"
        }
      ],
      "stateMutability": "view",
      "type": "function"
    },
    {
      "inputs": [],
      "name": "calculateOwnerFund",
      "outputs": [
        {
          "internalType": "uint256",
          "name": "ownerAllocation",
          "type": "uint256"
        }
      ],
      "stateMutability": "view",
      "type": "function"
    },
    {
      "inputs": [],
      "name": "calculateTreasuryFund",
      "outputs": [
        {
          "internalType": "uint256",
          "name": "treasuryAllocation",
          "type": "uint256"
        }
      ],
      "stateMutability": "view",
      "type": "function"
    },
    {
      "inputs": [],
      "name": "calculateinvestorsFund",
      "outputs": [
        {
          "internalType": "uint256",
          "name": "investorsAllocation",
          "type": "uint256"
        }
      ],
      "stateMutability": "view",
      "type": "function"
    },
    {
      "inputs": [],
      "name": "distributeRoyalty",
      "outputs": [],
      "stateMutability": "nonpayable",
      "type": "function"
    },
    {
      "stateMutability": "payable",
      "type": "receive"
    }
  ],
  "bytecode": {
    "object": "0x6080604052610992600455610bb8600555610dac60065561041a60075560405161054238038061054283398101604081905261003a91610102565b600280546001600160a01b031916331790556001600160a01b03831661006257610062610145565b600080546001600160a01b0319166001600160a01b0385811691909117909155821661009057610090610145565b600180546001600160a01b0319166001600160a01b038481169190911790915581166100be576100be610145565b600380546001600160a01b0319166001600160a01b03929092169190911790555061015b9050565b80516001600160a01b03811681146100fd57600080fd5b919050565b60008060006060848603121561011757600080fd5b610120846100e6565b925061012e602085016100e6565b915061013c604085016100e6565b90509250925092565b634e487b7160e01b600052600160045260246000fd5b6103d88061016a6000396000f3fe60806040526004361061004e5760003560e01c806347c0309b1461005a57806355bdde151461007157806357a95c09146100985780637deaafbc146100ad578063d964c1fe146100c257600080fd5b3661005557005b600080fd5b34801561006657600080fd5b5061006f6100d7565b005b34801561007d57600080fd5b50610086610277565b60405190815260200160405180910390f35b3480156100a457600080fd5b5061008661029d565b3480156100b957600080fd5b506100866102b3565b3480156100ce57600080fd5b506100866102c9565b6002546001600160a01b031633146101025760405163251c9d6360e01b815260040160405180910390fd5b6000806000806101106102df565b935093509350935060006101226102b3565b9050600061012e6102c9565b9050600061013a61029d565b90506000610146610277565b6040519091506001600160a01b0389169085156108fc029086906000818181858888f1935050505015801561017f573d6000803e3d6000fd5b506040516001600160a01b0388169084156108fc029085906000818181858888f193505050501580156101b6573d6000803e3d6000fd5b506040516001600160a01b0387169083156108fc029084906000818181858888f193505050501580156101ed573d6000803e3d6000fd5b506040516001600160a01b0386169082156108fc029083906000818181858888f19350505050158015610224573d6000803e3d6000fd5b506040805185815260208101859052908101839052606081018290527fccfb23cf39e4c44a0ff27157e8769049644a0e74b78a8f81f2b78a84597fd3e99060800160405180910390a15050505050505050565b60075460009047906127109061028d9083610353565b6102979190610380565b91505090565b60065460009047906127109061028d9083610353565b60045460009047906127109061028d9083610353565b60055460009047906127109061028d9083610353565b600080548190819081906001600160a01b0316158061030757506001546001600160a01b0316155b8061031b57506002546001600160a01b0316155b8061032f57506003546001600160a01b0316155b1561034d576040516376ba58d560e11b815260040160405180910390fd5b90919293565b600081600019048311821515161561037b57634e487b7160e01b600052601160045260246000fd5b500290565b60008261039d57634e487b7160e01b600052601260045260246000fd5b50049056fea2646970667358221220c8557651683f70e90835456961b7a4b42576e92db9552b3ee2006b5abda2932064736f6c634300080a0033",
    "linkReferences": {}
  },
  "methodIdentifiers": {
    "calculateCommunityFund()": "d964c1fe",
    "calculateOwnerFund()": "57a95c09",
    "calculateTreasuryFund()": "7deaafbc",
    "calculateinvestorsFund()": "55bdde15",
    "distributeRoyalty()": "47c0309b"
  },
  "id": 6
}