{
  "abi": [
    {
      "inputs": [],
      "stateMutability": "nonpayable",
      "type": "constructor"
    },
    {
      "inputs": [],
      "name": "ApprovalCallerNotOwnerNorApproved",
      "type": "error"
    },
    {
      "inputs": [],
      "name": "ApprovalQueryForNonexistentToken",
      "type": "error"
    },
    {
      "inputs": [],
      "name": "ApproveToCaller",
      "type": "error"
    },
    {
      "inputs": [],
      "name": "BalanceQueryForZeroAddress",
      "type": "error"
    },
    {
      "inputs": [],
      "name": "MintERC2309QuantityExceedsLimit",
      "type": "error"
    },
    {
      "inputs": [],
      "name": "MintToZeroAddress",
      "type": "error"
    },
    {
      "inputs": [],
      "name": "MintZeroQuantity",
      "type": "error"
    },
    {
      "inputs": [],
      "name": "OwnerQueryForNonexistentToken",
      "type": "error"
    },
    {
      "inputs": [],
      "name": "OwnershipNotInitializedForExtraData",
      "type": "error"
    },
    {
      "inputs": [],
      "name": "TransferCallerNotOwnerNorApproved",
      "type": "error"
    },
    {
      "inputs": [],
      "name": "TransferFromIncorrectOwner",
      "type": "error"
    },
    {
      "inputs": [],
      "name": "TransferToNonERC721ReceiverImplementer",
      "type": "error"
    },
    {
      "inputs": [],
      "name": "TransferToZeroAddress",
      "type": "error"
    },
    {
      "inputs": [],
      "name": "URIQueryForNonexistentToken",
      "type": "error"
    },
    {
      "anonymous": false,
      "inputs": [
        {
          "indexed": true,
          "internalType": "address",
          "name": "owner",
          "type": "address"
        },
        {
          "indexed": true,
          "internalType": "address",
          "name": "approved",
          "type": "address"
        },
        {
          "indexed": true,
          "internalType": "uint256",
          "name": "tokenId",
          "type": "uint256"
        }
      ],
      "name": "Approval",
      "type": "event"
    },
    {
      "anonymous": false,
      "inputs": [
        {
          "indexed": true,
          "internalType": "address",
          "name": "owner",
          "type": "address"
        },
        {
          "indexed": true,
          "internalType": "address",
          "name": "operator",
          "type": "address"
        },
        {
          "indexed": false,
          "internalType": "bool",
          "name": "approved",
          "type": "bool"
        }
      ],
      "name": "ApprovalForAll",
      "type": "event"
    },
    {
      "anonymous": false,
      "inputs": [
        {
          "indexed": true,
          "internalType": "uint256",
          "name": "fromTokenId",
          "type": "uint256"
        },
        {
          "indexed": false,
          "internalType": "uint256",
          "name": "toTokenId",
          "type": "uint256"
        },
        {
          "indexed": true,
          "internalType": "address",
          "name": "from",
          "type": "address"
        },
        {
          "indexed": true,
          "internalType": "address",
          "name": "to",
          "type": "address"
        }
      ],
      "name": "ConsecutiveTransfer",
      "type": "event"
    },
    {
      "anonymous": false,
      "inputs": [
        {
          "indexed": true,
          "internalType": "address",
          "name": "previousOwner",
          "type": "address"
        },
        {
          "indexed": true,
          "internalType": "address",
          "name": "newOwner",
          "type": "address"
        }
      ],
      "name": "OwnershipTransferred",
      "type": "event"
    },
    {
      "anonymous": false,
      "inputs": [
        {
          "indexed": true,
          "internalType": "address",
          "name": "from",
          "type": "address"
        },
        {
          "indexed": true,
          "internalType": "address",
          "name": "to",
          "type": "address"
        },
        {
          "indexed": true,
          "internalType": "uint256",
          "name": "tokenId",
          "type": "uint256"
        }
      ],
      "name": "Transfer",
      "type": "event"
    },
    {
      "inputs": [],
      "name": "AMOUNTFORTEAM",
      "outputs": [
        {
          "internalType": "uint256",
          "name": "",
          "type": "uint256"
        }
      ],
      "stateMutability": "view",
      "type": "function"
    },
    {
      "inputs": [],
      "name": "MAX_SALE_QUANTITY",
      "outputs": [
        {
          "internalType": "uint256",
          "name": "",
          "type": "uint256"
        }
      ],
      "stateMutability": "view",
      "type": "function"
    },
    {
      "inputs": [],
      "name": "PRESALE_MAX",
      "outputs": [
        {
          "internalType": "uint256",
          "name": "",
          "type": "uint256"
        }
      ],
      "stateMutability": "view",
      "type": "function"
    },
    {
      "inputs": [
        {
          "internalType": "bool",
          "name": "status",
          "type": "bool"
        }
      ],
      "name": "RevealNFT",
      "outputs": [],
      "stateMutability": "nonpayable",
      "type": "function"
    },
    {
      "inputs": [],
      "name": "TEAM_MAX",
      "outputs": [
        {
          "internalType": "uint256",
          "name": "",
          "type": "uint256"
        }
      ],
      "stateMutability": "view",
      "type": "function"
    },
    {
      "inputs": [],
      "name": "TOTAL_MAX",
      "outputs": [
        {
          "internalType": "uint256",
          "name": "",
          "type": "uint256"
        }
      ],
      "stateMutability": "view",
      "type": "function"
    },
    {
      "inputs": [
        {
          "internalType": "address",
          "name": "member",
          "type": "address"
        },
        {
          "internalType": "uint256",
          "name": "amount",
          "type": "uint256"
        }
      ],
      "name": "addTeamMember",
      "outputs": [],
      "stateMutability": "nonpayable",
      "type": "function"
    },
    {
      "inputs": [
        {
          "internalType": "address",
          "name": "to",
          "type": "address"
        },
        {
          "internalType": "uint256",
          "name": "tokenId",
          "type": "uint256"
        }
      ],
      "name": "approve",
      "outputs": [],
      "stateMutability": "nonpayable",
      "type": "function"
    },
    {
      "inputs": [
        {
          "internalType": "address",
          "name": "owner",
          "type": "address"
        }
      ],
      "name": "balanceOf",
      "outputs": [
        {
          "internalType": "uint256",
          "name": "",
          "type": "uint256"
        }
      ],
      "stateMutability": "view",
      "type": "function"
    },
    {
      "inputs": [
        {
          "internalType": "uint32",
          "name": "publicSaleStartTime",
          "type": "uint32"
        },
        {
          "internalType": "uint64",
          "name": "publicSalePriceWei",
          "type": "uint64"
        },
        {
          "internalType": "uint64",
          "name": "maxPerAddressDuringPublicSaleMint",
          "type": "uint64"
        }
      ],
      "name": "endPreSaleAndSetupPublicSale",
      "outputs": [],
      "stateMutability": "nonpayable",
      "type": "function"
    },
    {
      "inputs": [
        {
          "internalType": "uint256",
          "name": "tokenId",
          "type": "uint256"
        }
      ],
      "name": "getApproved",
      "outputs": [
        {
          "internalType": "address",
          "name": "",
          "type": "address"
        }
      ],
      "stateMutability": "view",
      "type": "function"
    },
    {
      "inputs": [
        {
          "internalType": "uint256",
          "name": "tokenId",
          "type": "uint256"
        }
      ],
      "name": "getOwnershipData",
      "outputs": [
        {
          "components": [
            {
              "internalType": "address",
              "name": "addr",
              "type": "address"
            },
            {
              "internalType": "uint64",
              "name": "startTimestamp",
              "type": "uint64"
            },
            {
              "internalType": "bool",
              "name": "burned",
              "type": "bool"
            },
            {
              "internalType": "uint24",
              "name": "extraData",
              "type": "uint24"
            }
          ],
          "internalType": "struct IERC721A.TokenOwnership",
          "name": "",
          "type": "tuple"
        }
      ],
      "stateMutability": "view",
      "type": "function"
    },
    {
      "inputs": [
        {
          "internalType": "address",
          "name": "owner",
          "type": "address"
        },
        {
          "internalType": "address",
          "name": "operator",
          "type": "address"
        }
      ],
      "name": "isApprovedForAll",
      "outputs": [
        {
          "internalType": "bool",
          "name": "",
          "type": "bool"
        }
      ],
      "stateMutability": "view",
      "type": "function"
    },
    {
      "inputs": [
        {
          "internalType": "address",
          "name": "",
          "type": "address"
        }
      ],
      "name": "memberHasMinted",
      "outputs": [
        {
          "internalType": "bool",
          "name": "",
          "type": "bool"
        }
      ],
      "stateMutability": "view",
      "type": "function"
    },
    {
      "inputs": [],
      "name": "name",
      "outputs": [
        {
          "internalType": "string",
          "name": "",
          "type": "string"
        }
      ],
      "stateMutability": "view",
      "type": "function"
    },
    {
      "inputs": [
        {
          "internalType": "address",
          "name": "owner",
          "type": "address"
        }
      ],
      "name": "numberMinted",
      "outputs": [
        {
          "internalType": "uint256",
          "name": "",
          "type": "uint256"
        }
      ],
      "stateMutability": "view",
      "type": "function"
    },
    {
      "inputs": [],
      "name": "owner",
      "outputs": [
        {
          "internalType": "address",
          "name": "",
          "type": "address"
        }
      ],
      "stateMutability": "view",
      "type": "function"
    },
    {
      "inputs": [
        {
          "internalType": "uint256",
          "name": "tokenId",
          "type": "uint256"
        }
      ],
      "name": "ownerOf",
      "outputs": [
        {
          "internalType": "address",
          "name": "",
          "type": "address"
        }
      ],
      "stateMutability": "view",
      "type": "function"
    },
    {
      "inputs": [
        {
          "internalType": "bytes32[]",
          "name": "_merkleProof",
          "type": "bytes32[]"
        },
        {
          "internalType": "uint64",
          "name": "quantity",
          "type": "uint64"
        }
      ],
      "name": "presaleMint",
      "outputs": [],
      "stateMutability": "payable",
      "type": "function"
    },
    {
      "inputs": [],
      "name": "presaleProps",
      "outputs": [
        {
          "internalType": "bytes32",
          "name": "merkleRoot",
          "type": "bytes32"
        },
        {
          "internalType": "uint32",
          "name": "startTime",
          "type": "uint32"
        },
        {
          "internalType": "uint64",
          "name": "price",
          "type": "uint64"
        },
        {
          "internalType": "uint64",
          "name": "maxPerAddress",
          "type": "uint64"
        }
      ],
      "stateMutability": "view",
      "type": "function"
    },
    {
      "inputs": [
        {
          "internalType": "uint64",
          "name": "quantity",
          "type": "uint64"
        }
      ],
      "name": "publicSaleMint",
      "outputs": [],
      "stateMutability": "payable",
      "type": "function"
    },
    {
      "inputs": [],
      "name": "publicSaleProps",
      "outputs": [
        {
          "internalType": "uint32",
          "name": "startTime",
          "type": "uint32"
        },
        {
          "internalType": "uint64",
          "name": "price",
          "type": "uint64"
        },
        {
          "internalType": "uint64",
          "name": "maxPerAddress",
          "type": "uint64"
        }
      ],
      "stateMutability": "view",
      "type": "function"
    },
    {
      "inputs": [],
      "name": "renounceOwnership",
      "outputs": [],
      "stateMutability": "nonpayable",
      "type": "function"
    },
    {
      "inputs": [],
      "name": "reserveCount",
      "outputs": [
        {
          "internalType": "uint256",
          "name": "",
          "type": "uint256"
        }
      ],
      "stateMutability": "view",
      "type": "function"
    },
    {
      "inputs": [],
      "name": "revealed",
      "outputs": [
        {
          "internalType": "bool",
          "name": "",
          "type": "bool"
        }
      ],
      "stateMutability": "view",
      "type": "function"
    },
    {
      "inputs": [
        {
          "internalType": "address",
          "name": "from",
          "type": "address"
        },
        {
          "internalType": "address",
          "name": "to",
          "type": "address"
        },
        {
          "internalType": "uint256",
          "name": "tokenId",
          "type": "uint256"
        }
      ],
      "name": "safeTransferFrom",
      "outputs": [],
      "stateMutability": "nonpayable",
      "type": "function"
    },
    {
      "inputs": [
        {
          "internalType": "address",
          "name": "from",
          "type": "address"
        },
        {
          "internalType": "address",
          "name": "to",
          "type": "address"
        },
        {
          "internalType": "uint256",
          "name": "tokenId",
          "type": "uint256"
        },
        {
          "internalType": "bytes",
          "name": "_data",
          "type": "bytes"
        }
      ],
      "name": "safeTransferFrom",
      "outputs": [],
      "stateMutability": "nonpayable",
      "type": "function"
    },
    {
      "inputs": [
        {
          "internalType": "address",
          "name": "operator",
          "type": "address"
        },
        {
          "internalType": "bool",
          "name": "approved",
          "type": "bool"
        }
      ],
      "name": "setApprovalForAll",
      "outputs": [],
      "stateMutability": "nonpayable",
      "type": "function"
    },
    {
      "inputs": [
        {
          "internalType": "string",
          "name": "baseURI",
          "type": "string"
        }
      ],
      "name": "setBaseURI",
      "outputs": [],
      "stateMutability": "nonpayable",
      "type": "function"
    },
    {
      "inputs": [
        {
          "internalType": "bytes32",
          "name": "root",
          "type": "bytes32"
        }
      ],
      "name": "setMerkleRoot",
      "outputs": [],
      "stateMutability": "nonpayable",
      "type": "function"
    },
    {
      "inputs": [
        {
          "internalType": "bytes32",
          "name": "merkleRoot",
          "type": "bytes32"
        },
        {
          "internalType": "uint32",
          "name": "presaleStartTime",
          "type": "uint32"
        },
        {
          "internalType": "uint64",
          "name": "presalePriceWei",
          "type": "uint64"
        },
        {
          "internalType": "uint64",
          "name": "maxPerAddressDuringPresaleMint",
          "type": "uint64"
        }
      ],
      "name": "setPresaleProps",
      "outputs": [],
      "stateMutability": "nonpayable",
      "type": "function"
    },
    {
      "inputs": [
        {
          "internalType": "bytes4",
          "name": "interfaceId",
          "type": "bytes4"
        }
      ],
      "name": "supportsInterface",
      "outputs": [
        {
          "internalType": "bool",
          "name": "",
          "type": "bool"
        }
      ],
      "stateMutability": "view",
      "type": "function"
    },
    {
      "inputs": [],
      "name": "symbol",
      "outputs": [
        {
          "internalType": "string",
          "name": "",
          "type": "string"
        }
      ],
      "stateMutability": "view",
      "type": "function"
    },
    {
      "inputs": [
        {
          "internalType": "address",
          "name": "",
          "type": "address"
        }
      ],
      "name": "teamMember",
      "outputs": [
        {
          "internalType": "uint256",
          "name": "",
          "type": "uint256"
        }
      ],
      "stateMutability": "view",
      "type": "function"
    },
    {
      "inputs": [],
      "name": "teamMint",
      "outputs": [],
      "stateMutability": "nonpayable",
      "type": "function"
    },
    {
      "inputs": [
        {
          "internalType": "uint256",
          "name": "_tokenId",
          "type": "uint256"
        }
      ],
      "name": "tokenURI",
      "outputs": [
        {
          "internalType": "string",
          "name": "",
          "type": "string"
        }
      ],
      "stateMutability": "view",
      "type": "function"
    },
    {
      "inputs": [],
      "name": "totalSupply",
      "outputs": [
        {
          "internalType": "uint256",
          "name": "",
          "type": "uint256"
        }
      ],
      "stateMutability": "view",
      "type": "function"
    },
    {
      "inputs": [
        {
          "internalType": "address",
          "name": "from",
          "type": "address"
        },
        {
          "internalType": "address",
          "name": "to",
          "type": "address"
        },
        {
          "internalType": "uint256",
          "name": "tokenId",
          "type": "uint256"
        }
      ],
      "name": "transferFrom",
      "outputs": [],
      "stateMutability": "nonpayable",
      "type": "function"
    },
    {
      "inputs": [
        {
          "internalType": "address",
          "name": "newOwner",
          "type": "address"
        }
      ],
      "name": "transferOwnership",
      "outputs": [],
      "stateMutability": "nonpayable",
      "type": "function"
    },
    {
      "inputs": [],
      "name": "whitelistCount",
      "outputs": [
        {
          "internalType": "uint256",
          "name": "",
          "type": "uint256"
        }
      ],
      "stateMutability": "view",
      "type": "function"
    },
    {
      "inputs": [],
      "name": "withdrawMoney",
      "outputs": [],
      "stateMutability": "nonpayable",
      "type": "function"
    }
  ],
  "bytecode": {
    "object": "0x60806040523480156200001157600080fd5b506040518060400160405280600b81526020016a447265616d65727342617960a81b81525060405180604001604052806002815260200161222160f11b815250816002908051906020019062000069929190620000ef565b5080516200007f906003906020840190620000ef565b505060016000555062000092336200009d565b6001600955620001d2565b600880546001600160a01b038381166001600160a01b0319831681179093556040519116919082907f8be0079c531659141344cd1fd0a4f28419497f9722a3daafe3b4186f6b6457e090600090a35050565b828054620000fd9062000195565b90600052602060002090601f0160209004810192826200012157600085556200016c565b82601f106200013c57805160ff19168380011785556200016c565b828001600101855582156200016c579182015b828111156200016c5782518255916020019190600101906200014f565b506200017a9291506200017e565b5090565b5b808211156200017a57600081556001016200017f565b600181811c90821680620001aa57607f821691505b60208210811415620001cc57634e487b7160e01b600052602260045260246000fd5b50919050565b61252680620001e26000396000f3fe6080604052600436106102465760003560e01c80637cb6475911610139578063ba7a86b8116100b6578063dc33e6811161007a578063dc33e681146106c4578063e985e9c5146106e4578063f2624b5d1461072d578063f2fde38b14610743578063f734eb9f14610763578063ff4c6130146107c957600080fd5b8063ba7a86b814610651578063c3dc6ecf14610666578063c87b56dd1461067b578063d598135e1461069b578063d63dd701146106b157600080fd5b806395d89b41116100fd57806395d89b41146105d1578063a08a81d7146105e6578063a22cb465146105fc578063ac4460021461061c578063b88d4fde1461063157600080fd5b80637cb64759146104e757806386700b59146105075780638d13192b146105275780638da5cb5b146105475780639231ab2a1461056557600080fd5b806342842e0e116101c757806363518e761161018b57806363518e761461044d5780636352211e1461047d57806370a082311461049d578063715018a6146104bd57806375296b86146104d257600080fd5b806342842e0e146103c057806347fa1e75146103e057806351830227146103f3578063522a77d71461040d57806355f804b31461042d57600080fd5b806316317c211161020e57806316317c211461031c57806318160ddd1461034057806323b872dd1461035e578063303fe55d1461037e578063383bbce5146103ab57600080fd5b806301ffc9a71461024b57806306fdde0314610280578063081812fc146102a2578063095ea7b3146102da57806309f396e0146102fc575b600080fd5b34801561025757600080fd5b5061026b610266366004611e07565b61083b565b60405190151581526020015b60405180910390f35b34801561028c57600080fd5b5061029561088d565b6040516102779190611e7c565b3480156102ae57600080fd5b506102c26102bd366004611e8f565b61091f565b6040516001600160a01b039091168152602001610277565b3480156102e657600080fd5b506102fa6102f5366004611ebf565b610963565b005b34801561030857600080fd5b506102fa610317366004611f14565b610a03565b34801561032857600080fd5b50610332600b5481565b604051908152602001610277565b34801561034c57600080fd5b50610332600154600054036000190190565b34801561036a57600080fd5b506102fa610379366004611f57565b610a65565b34801561038a57600080fd5b50610332610399366004611f93565b60116020526000908152604090205481565b3480156103b757600080fd5b50610332600581565b3480156103cc57600080fd5b506102fa6103db366004611f57565b610bf6565b6102fa6103ee366004611fae565b610c16565b3480156103ff57600080fd5b50600d5461026b9060ff1681565b34801561041957600080fd5b506102fa610428366004612038565b610ef7565b34801561043957600080fd5b506102fa610448366004612053565b610f12565b34801561045957600080fd5b5061026b610468366004611f93565b60126020526000908152604090205460ff1681565b34801561048957600080fd5b506102c2610498366004611e8f565b610f26565b3480156104a957600080fd5b506103326104b8366004611f93565b610f31565b3480156104c957600080fd5b506102fa610f7f565b3480156104de57600080fd5b50610332606481565b3480156104f357600080fd5b506102fa610502366004611e8f565b610f93565b34801561051357600080fd5b506102fa6105223660046120c4565b610fa0565b34801561053357600080fd5b506102fa610542366004611ebf565b610ffe565b34801561055357600080fd5b506008546001600160a01b03166102c2565b34801561057157600080fd5b50610585610580366004611e8f565b611037565b604051610277919081516001600160a01b031681526020808301516001600160401b03169082015260408083015115159082015260609182015162ffffff169181019190915260800190565b3480156105dd57600080fd5b50610295611064565b3480156105f257600080fd5b5061033261271081565b34801561060857600080fd5b506102fa610617366004612111565b611073565b34801561062857600080fd5b506102fa611109565b34801561063d57600080fd5b506102fa61064c36600461215a565b6111e9565b34801561065d57600080fd5b506102fa611233565b34801561067257600080fd5b50610332600381565b34801561068757600080fd5b50610295610696366004611e8f565b61135f565b3480156106a757600080fd5b5061033261138881565b6102fa6106bf366004612235565b611423565b3480156106d057600080fd5b506103326106df366004611f93565b611627565b3480156106f057600080fd5b5061026b6106ff366004612250565b6001600160a01b03918216600090815260076020908152604080832093909416825291909152205460ff1690565b34801561073957600080fd5b50610332600a5481565b34801561074f57600080fd5b506102fa61075e366004611f93565b611651565b34801561076f57600080fd5b5060105461079d9063ffffffff8116906001600160401b036401000000008204811691600160601b90041683565b6040805163ffffffff90941684526001600160401b039283166020850152911690820152606001610277565b3480156107d557600080fd5b50600e54600f54610807919063ffffffff8116906001600160401b036401000000008204811691600160601b90041684565b6040805194855263ffffffff90931660208501526001600160401b0391821692840192909252166060820152608001610277565b60006301ffc9a760e01b6001600160e01b03198316148061086c57506380ac58cd60e01b6001600160e01b03198316145b806108875750635b5e139f60e01b6001600160e01b03198316145b92915050565b60606002805461089c9061227a565b80601f01602080910402602001604051908101604052809291908181526020018280546108c89061227a565b80156109155780601f106108ea57610100808354040283529160200191610915565b820191906000526020600020905b8154815290600101906020018083116108f857829003601f168201915b5050505050905090565b600061092a826116ca565b610947576040516333d1c03960e21b815260040160405180910390fd5b506000908152600660205260409020546001600160a01b031690565b600061096e82610f26565b9050336001600160a01b038216146109a75761098a81336106ff565b6109a7576040516367d9dca160e11b815260040160405180910390fd5b60008281526006602052604080822080546001600160a01b0319166001600160a01b0387811691821790925591518593918516917f8c5be1e5ebec7d5bd14f71427d1e84f3dd0314c0f7b2291e5b200ac8c7c3b92591a4505050565b610a0b6116ff565b600f805463ffffffff191690556010805463ffffffff949094166001600160601b0319909416939093176401000000006001600160401b03938416021767ffffffffffffffff60601b1916600160601b9190921602179055565b6000610a7082611759565b9050836001600160a01b0316816001600160a01b031614610aa35760405162a1148160e81b815260040160405180910390fd5b60008281526006602052604090208054338082146001600160a01b03881690911417610af057610ad386336106ff565b610af057604051632ce44b5f60e11b815260040160405180910390fd5b6001600160a01b038516610b1757604051633a954ecd60e21b815260040160405180910390fd5b8015610b2257600082555b6001600160a01b038681166000908152600560205260408082208054600019019055918716808252919020805460010190554260a01b17600160e11b17600085815260046020526040902055600160e11b8316610bad5760018401600081815260046020526040902054610bab576000548114610bab5760008181526004602052604090208490555b505b83856001600160a01b0316876001600160a01b03167fddf252ad1be2c89b69c2b068fc378daa952ba7f163c4a11628f55a4df523b3ef60405160405180910390a4505050505050565b610c11838383604051806020016040528060008152506111e9565b505050565b60026009541415610c425760405162461bcd60e51b8152600401610c39906122b5565b60405180910390fd5b6002600955600f546001600160401b03640100000000820481169163ffffffff811691600160601b9091041682610cbb5760405162461bcd60e51b815260206004820181905260248201527f77686974656c6973742073616c6520686173206e6f7420626567756e207965746044820152606401610c39565b8115801590610cca5750814210155b610d165760405162461bcd60e51b815260206004820152601960248201527f70726573616c6520686173206e6f7420626567756e20796574000000000000006044820152606401610c39565b611388846001600160401b0316610d34600154600054036000190190565b610d3e9190612302565b1115610d8c5760405162461bcd60e51b815260206004820152601960248201527f70726553616c65206d617820737570706c79206d696e746564000000000000006044820152606401610c39565b6040516001600160601b03193360601b166020820152600090603401604051602081830303815290604052805190602001209050610e0187878080602002602001604051908101604052809392919081815260200183836020028082843760009201919091525050600e5491508490506117c9565b610e4d5760405162461bcd60e51b815260206004820152601760248201527f696e76616c69642077686974656c6973742070726f6f660000000000000000006044820152606401610c39565b816001600160401b0316856001600160401b0316610e6a33611627565b610e749190612302565b1115610ebb5760405162461bcd60e51b815260206004820152601660248201527563616e206e6f74206d696e742074686973206d616e7960501b6044820152606401610c39565b610ed6610ed16001600160401b0387168661231a565b6117df565b610ee933866001600160401b03166118c8565b505060016009555050505050565b610eff6116ff565b600d805460ff1916911515919091179055565b610f1a6116ff565b610c11600c8383611d58565b600061088782611759565b60006001600160a01b038216610f5a576040516323d3ad8160e21b815260040160405180910390fd5b506001600160a01b03166000908152600560205260409020546001600160401b031690565b610f876116ff565b610f9160006118e6565b565b610f9b6116ff565b600e55565b610fa86116ff565b600e93909355600f805463ffffffff939093166001600160601b0319909316929092176401000000006001600160401b03928316021767ffffffffffffffff60601b1916600160601b9190931602919091179055565b6110066116ff565b6001600160a01b0382166000908152601160205260408120805483929061102e908490612302565b90915550505050565b60408051608081018252600080825260208201819052918101829052606081019190915261088782611938565b60606003805461089c9061227a565b6001600160a01b03821633141561109d5760405163b06307db60e01b815260040160405180910390fd5b3360008181526007602090815260408083206001600160a01b03871680855290835292819020805460ff191686151590811790915590519081529192917f17307eab39ab6107e8899845ad3d59bd9653f200f220920489ca2b5937696c31910160405180910390a35050565b6111116116ff565b600260095414156111345760405162461bcd60e51b8152600401610c39906122b5565b600260095547600061114e6008546001600160a01b031690565b6001600160a01b03168260405160006040518083038185875af1925050503d8060008114611198576040519150601f19603f3d011682016040523d82523d6000602084013e61119d565b606091505b50509050806111e05760405162461bcd60e51b815260206004820152600f60248201526e1d1c985b9cd9995c8819985a5b1959608a1b6044820152606401610c39565b50506001600955565b6111f4848484610a65565b6001600160a01b0383163b1561122d57611210848484846119af565b61122d576040516368d2bf6b60e11b815260040160405180910390fd5b50505050565b600260095414156112565760405162461bcd60e51b8152600401610c39906122b5565b6002600955336000908152601160205260409020546112b75760405162461bcd60e51b815260206004820152601d60248201527f7465616d4d696e743a204e6f207465616d4e46542061737369676e65640000006044820152606401610c39565b336000908152601160205260409020546064816112db600154600054036000190190565b6112e59190612302565b11156113285760405162461bcd60e51b815260206004820152601260248201527172656163686564206d617820737570706c7960701b6044820152606401610c39565b3360009081526011602052604081208054839290611347908490612339565b90915550611357905033826118c8565b506001600955565b606061136a826116ca565b6113ce5760405162461bcd60e51b815260206004820152602f60248201527f4552433732314d657461646174613a2055524920717565727920666f72206e6f60448201526e3732bc34b9ba32b73a103a37b5b2b760891b6064820152608401610c39565b600d5460ff166113ec57505060408051602081019091526000815290565b600c6113f783611a98565b60405160200161140892919061236c565b6040516020818303038152906040529050919050565b919050565b600260095414156114465760405162461bcd60e51b8152600401610c39906122b5565b60026009556010546001600160401b03640100000000820481169163ffffffff811691600160601b90910416826114bf5760405162461bcd60e51b815260206004820152601d60248201527f7075626c69632073616c6520686173206e6f7420626567756e207965740000006044820152606401610c39565b81158015906114ce5750814210155b61151a5760405162461bcd60e51b815260206004820152601d60248201527f7075626c69632073616c6520686173206e6f7420626567756e207965740000006044820152606401610c39565b612710846001600160401b0316611538600154600054036000190190565b6115429190612302565b11156115855760405162461bcd60e51b815260206004820152601260248201527172656163686564206d617820737570706c7960701b6044820152606401610c39565b806001600160401b0316846001600160401b03166115a233611627565b6115ac9190612302565b11156115f35760405162461bcd60e51b815260206004820152601660248201527563616e206e6f74206d696e742074686973206d616e7960501b6044820152606401610c39565b611609610ed16001600160401b0386168561231a565b61161c33856001600160401b03166118c8565b505060016009555050565b6001600160a01b038116600090815260056020526040808220546001600160401b03911c16610887565b6116596116ff565b6001600160a01b0381166116be5760405162461bcd60e51b815260206004820152602660248201527f4f776e61626c653a206e6577206f776e657220697320746865207a65726f206160448201526564647265737360d01b6064820152608401610c39565b6116c7816118e6565b50565b6000816001111580156116de575060005482105b8015610887575050600090815260046020526040902054600160e01b161590565b6008546001600160a01b03163314610f915760405162461bcd60e51b815260206004820181905260248201527f4f776e61626c653a2063616c6c6572206973206e6f7420746865206f776e65726044820152606401610c39565b600081806001116117b0576000548110156117b057600081815260046020526040902054600160e01b81166117ae575b806117a7575060001901600081815260046020526040902054611789565b9392505050565b505b604051636f96cda160e11b815260040160405180910390fd5b6000826117d68584611b95565b14949350505050565b803410156118275760405162461bcd60e51b81526020600482015260156024820152740dccacac840e8de40e6cadcc840dadee4ca408aa89605b1b6044820152606401610c39565b803411156116c757600061183b8234612339565b604051909150600090339083908381818185875af1925050503d8060008114611880576040519150601f19603f3d011682016040523d82523d6000602084013e611885565b606091505b5050905080610c115760405162461bcd60e51b815260206004820152600f60248201526e1d1c985b9cd9995c8819985a5b1959608a1b6044820152606401610c39565b6118e2828260405180602001604052806000815250611be2565b5050565b600880546001600160a01b038381166001600160a01b0319831681179093556040519116919082907f8be0079c531659141344cd1fd0a4f28419497f9722a3daafe3b4186f6b6457e090600090a35050565b60408051608081018252600080825260208201819052918101829052606081019190915261088761196883611759565b604080516080810182526001600160a01b038316815260a083901c6001600160401b03166020820152600160e01b831615159181019190915260e89190911c606082015290565b604051630a85bd0160e11b81526000906001600160a01b0385169063150b7a02906119e4903390899088908890600401612427565b6020604051808303816000875af1925050508015611a1f575060408051601f3d908101601f19168201909252611a1c91810190612464565b60015b611a7a573d808015611a4d576040519150601f19603f3d011682016040523d82523d6000602084013e611a52565b606091505b508051611a72576040516368d2bf6b60e11b815260040160405180910390fd5b805181602001fd5b6001600160e01b031916630a85bd0160e11b1490505b949350505050565b606081611abc5750506040805180820190915260018152600360fc1b602082015290565b8160005b8115611ae65780611ad081612481565b9150611adf9050600a836124b2565b9150611ac0565b6000816001600160401b03811115611b0057611b00612144565b6040519080825280601f01601f191660200182016040528015611b2a576020820181803683370190505b5090505b8415611a9057611b3f600183612339565b9150611b4c600a866124c6565b611b57906030612302565b60f81b818381518110611b6c57611b6c6124da565b60200101906001600160f81b031916908160001a905350611b8e600a866124b2565b9450611b2e565b600081815b8451811015611bda57611bc682868381518110611bb957611bb96124da565b6020026020010151611c4f565b915080611bd281612481565b915050611b9a565b509392505050565b611bec8383611c7b565b6001600160a01b0383163b15610c11576000548281035b611c1660008683806001019450866119af565b611c33576040516368d2bf6b60e11b815260040160405180910390fd5b818110611c03578160005414611c4857600080fd5b5050505050565b6000818310611c6b5760008281526020849052604090206117a7565b5060009182526020526040902090565b6000546001600160a01b038316611ca457604051622e076360e81b815260040160405180910390fd5b81611cc25760405163b562e8dd60e01b815260040160405180910390fd5b6001600160a01b038316600081815260056020526040902080546801000000000000000185020190554260a01b6001841460e11b1717600082815260046020526040902055808281015b6040516001830192906001600160a01b038716906000907fddf252ad1be2c89b69c2b068fc378daa952ba7f163c4a11628f55a4df523b3ef908290a4808210611d0c5760005550505050565b828054611d649061227a565b90600052602060002090601f016020900481019282611d865760008555611dcc565b82601f10611d9f5782800160ff19823516178555611dcc565b82800160010185558215611dcc579182015b82811115611dcc578235825591602001919060010190611db1565b50611dd8929150611ddc565b5090565b5b80821115611dd85760008155600101611ddd565b6001600160e01b0319811681146116c757600080fd5b600060208284031215611e1957600080fd5b81356117a781611df1565b60005b83811015611e3f578181015183820152602001611e27565b8381111561122d5750506000910152565b60008151808452611e68816020860160208601611e24565b601f01601f19169290920160200192915050565b6020815260006117a76020830184611e50565b600060208284031215611ea157600080fd5b5035919050565b80356001600160a01b038116811461141e57600080fd5b60008060408385031215611ed257600080fd5b611edb83611ea8565b946020939093013593505050565b803563ffffffff8116811461141e57600080fd5b80356001600160401b038116811461141e57600080fd5b600080600060608486031215611f2957600080fd5b611f3284611ee9565b9250611f4060208501611efd565b9150611f4e60408501611efd565b90509250925092565b600080600060608486031215611f6c57600080fd5b611f7584611ea8565b9250611f8360208501611ea8565b9150604084013590509250925092565b600060208284031215611fa557600080fd5b6117a782611ea8565b600080600060408486031215611fc357600080fd5b83356001600160401b0380821115611fda57600080fd5b818601915086601f830112611fee57600080fd5b813581811115611ffd57600080fd5b8760208260051b850101111561201257600080fd5b602092830195509350611f4e9186019050611efd565b8035801515811461141e57600080fd5b60006020828403121561204a57600080fd5b6117a782612028565b6000806020838503121561206657600080fd5b82356001600160401b038082111561207d57600080fd5b818501915085601f83011261209157600080fd5b8135818111156120a057600080fd5b8660208285010111156120b257600080fd5b60209290920196919550909350505050565b600080600080608085870312156120da57600080fd5b843593506120ea60208601611ee9565b92506120f860408601611efd565b915061210660608601611efd565b905092959194509250565b6000806040838503121561212457600080fd5b61212d83611ea8565b915061213b60208401612028565b90509250929050565b634e487b7160e01b600052604160045260246000fd5b6000806000806080858703121561217057600080fd5b61217985611ea8565b935061218760208601611ea8565b92506040850135915060608501356001600160401b03808211156121aa57600080fd5b818701915087601f8301126121be57600080fd5b8135818111156121d0576121d0612144565b604051601f8201601f19908116603f011681019083821181831017156121f8576121f8612144565b816040528281528a602084870101111561221157600080fd5b82602086016020830137600060208483010152809550505050505092959194509250565b60006020828403121561224757600080fd5b6117a782611efd565b6000806040838503121561226357600080fd5b61226c83611ea8565b915061213b60208401611ea8565b600181811c9082168061228e57607f821691505b602082108114156122af57634e487b7160e01b600052602260045260246000fd5b50919050565b6020808252601f908201527f5265656e7472616e637947756172643a207265656e7472616e742063616c6c00604082015260600190565b634e487b7160e01b600052601160045260246000fd5b60008219821115612315576123156122ec565b500190565b6000816000190483118215151615612334576123346122ec565b500290565b60008282101561234b5761234b6122ec565b500390565b60008151612362818560208601611e24565b9290920192915050565b600080845481600182811c91508083168061238857607f831692505b60208084108214156123a857634e487b7160e01b86526022600452602486fd5b8180156123bc57600181146123cd576123fa565b60ff198616895284890196506123fa565b60008b81526020902060005b868110156123f25781548b8201529085019083016123d9565b505084890196505b50505050505061241e61240d8286612350565b64173539b7b760d91b815260050190565b95945050505050565b6001600160a01b038581168252841660208201526040810183905260806060820181905260009061245a90830184611e50565b9695505050505050565b60006020828403121561247657600080fd5b81516117a781611df1565b6000600019821415612495576124956122ec565b5060010190565b634e487b7160e01b600052601260045260246000fd5b6000826124c1576124c161249c565b500490565b6000826124d5576124d561249c565b500690565b634e487b7160e01b600052603260045260246000fdfea26469706673582212206e8d17493c74d38e4e611e968d21163c72910a4f17c7a00a8bffcade9b43471664736f6c634300080a0033",
    "linkReferences": {}
  },
  "methodIdentifiers": {
    "AMOUNTFORTEAM()": "383bbce5",
    "MAX_SALE_QUANTITY()": "c3dc6ecf",
    "PRESALE_MAX()": "d598135e",
    "RevealNFT(bool)": "522a77d7",
    "TEAM_MAX()": "75296b86",
    "TOTAL_MAX()": "a08a81d7",
    "addTeamMember(address,uint256)": "8d13192b",
    "approve(address,uint256)": "095ea7b3",
    "balanceOf(address)": "70a08231",
    "endPreSaleAndSetupPublicSale(uint32,uint64,uint64)": "09f396e0",
    "getApproved(uint256)": "081812fc",
    "getOwnershipData(uint256)": "9231ab2a",
    "isApprovedForAll(address,address)": "e985e9c5",
    "memberHasMinted(address)": "63518e76",
    "name()": "06fdde03",
    "numberMinted(address)": "dc33e681",
    "owner()": "8da5cb5b",
    "ownerOf(uint256)": "6352211e",
    "presaleMint(bytes32[],uint64)": "47fa1e75",
    "presaleProps()": "ff4c6130",
    "publicSaleMint(uint64)": "d63dd701",
    "publicSaleProps()": "f734eb9f",
    "renounceOwnership()": "715018a6",
    "reserveCount()": "16317c21",
    "revealed()": "51830227",
    "safeTransferFrom(address,address,uint256)": "42842e0e",
    "safeTransferFrom(address,address,uint256,bytes)": "b88d4fde",
    "setApprovalForAll(address,bool)": "a22cb465",
    "setBaseURI(string)": "55f804b3",
    "setMerkleRoot(bytes32)": "7cb64759",
    "setPresaleProps(bytes32,uint32,uint64,uint64)": "86700b59",
    "supportsInterface(bytes4)": "01ffc9a7",
    "symbol()": "95d89b41",
    "teamMember(address)": "303fe55d",
    "teamMint()": "ba7a86b8",
    "tokenURI(uint256)": "c87b56dd",
    "totalSupply()": "18160ddd",
    "transferFrom(address,address,uint256)": "23b872dd",
    "transferOwnership(address)": "f2fde38b",
    "whitelistCount()": "f2624b5d",
    "withdrawMoney()": "ac446002"
  },
  "id": 14
}