{
  "abi": [
    {
      "inputs": [],
      "stateMutability": "nonpayable",
      "type": "constructor"
    },
    {
      "inputs": [],
      "name": "ApprovalCallerNotOwnerNorApproved",
      "type": "error"
    },
    {
      "inputs": [],
      "name": "ApprovalQueryForNonexistentToken",
      "type": "error"
    },
    {
      "inputs": [],
      "name": "ApproveToCaller",
      "type": "error"
    },
    {
      "inputs": [],
      "name": "BalanceQueryForZeroAddress",
      "type": "error"
    },
    {
      "inputs": [],
      "name": "MintERC2309QuantityExceedsLimit",
      "type": "error"
    },
    {
      "inputs": [],
      "name": "MintToZeroAddress",
      "type": "error"
    },
    {
      "inputs": [],
      "name": "MintZeroQuantity",
      "type": "error"
    },
    {
      "inputs": [],
      "name": "OwnerQueryForNonexistentToken",
      "type": "error"
    },
    {
      "inputs": [],
      "name": "OwnershipNotInitializedForExtraData",
      "type": "error"
    },
    {
      "inputs": [],
      "name": "TransferCallerNotOwnerNorApproved",
      "type": "error"
    },
    {
      "inputs": [],
      "name": "TransferFromIncorrectOwner",
      "type": "error"
    },
    {
      "inputs": [],
      "name": "TransferToNonERC721ReceiverImplementer",
      "type": "error"
    },
    {
      "inputs": [],
      "name": "TransferToZeroAddress",
      "type": "error"
    },
    {
      "inputs": [],
      "name": "URIQueryForNonexistentToken",
      "type": "error"
    },
    {
      "anonymous": false,
      "inputs": [
        {
          "indexed": true,
          "internalType": "address",
          "name": "owner",
          "type": "address"
        },
        {
          "indexed": true,
          "internalType": "address",
          "name": "approved",
          "type": "address"
        },
        {
          "indexed": true,
          "internalType": "uint256",
          "name": "tokenId",
          "type": "uint256"
        }
      ],
      "name": "Approval",
      "type": "event"
    },
    {
      "anonymous": false,
      "inputs": [
        {
          "indexed": true,
          "internalType": "address",
          "name": "owner",
          "type": "address"
        },
        {
          "indexed": true,
          "internalType": "address",
          "name": "operator",
          "type": "address"
        },
        {
          "indexed": false,
          "internalType": "bool",
          "name": "approved",
          "type": "bool"
        }
      ],
      "name": "ApprovalForAll",
      "type": "event"
    },
    {
      "anonymous": false,
      "inputs": [
        {
          "indexed": true,
          "internalType": "uint256",
          "name": "fromTokenId",
          "type": "uint256"
        },
        {
          "indexed": false,
          "internalType": "uint256",
          "name": "toTokenId",
          "type": "uint256"
        },
        {
          "indexed": true,
          "internalType": "address",
          "name": "from",
          "type": "address"
        },
        {
          "indexed": true,
          "internalType": "address",
          "name": "to",
          "type": "address"
        }
      ],
      "name": "ConsecutiveTransfer",
      "type": "event"
    },
    {
      "anonymous": false,
      "inputs": [
        {
          "indexed": true,
          "internalType": "address",
          "name": "previousOwner",
          "type": "address"
        },
        {
          "indexed": true,
          "internalType": "address",
          "name": "newOwner",
          "type": "address"
        }
      ],
      "name": "OwnershipTransferred",
      "type": "event"
    },
    {
      "anonymous": false,
      "inputs": [
        {
          "indexed": true,
          "internalType": "address",
          "name": "from",
          "type": "address"
        },
        {
          "indexed": true,
          "internalType": "address",
          "name": "to",
          "type": "address"
        },
        {
          "indexed": true,
          "internalType": "uint256",
          "name": "tokenId",
          "type": "uint256"
        }
      ],
      "name": "Transfer",
      "type": "event"
    },
    {
      "inputs": [],
      "name": "AMOUNTFORTEAM",
      "outputs": [
        {
          "internalType": "uint256",
          "name": "",
          "type": "uint256"
        }
      ],
      "stateMutability": "view",
      "type": "function"
    },
    {
      "inputs": [],
      "name": "MAX_SALE_QUANTITY",
      "outputs": [
        {
          "internalType": "uint256",
          "name": "",
          "type": "uint256"
        }
      ],
      "stateMutability": "view",
      "type": "function"
    },
    {
      "inputs": [],
      "name": "PRESALE_MAX",
      "outputs": [
        {
          "internalType": "uint256",
          "name": "",
          "type": "uint256"
        }
      ],
      "stateMutability": "view",
      "type": "function"
    },
    {
      "inputs": [],
      "name": "TEAM_MAX",
      "outputs": [
        {
          "internalType": "uint256",
          "name": "",
          "type": "uint256"
        }
      ],
      "stateMutability": "view",
      "type": "function"
    },
    {
      "inputs": [],
      "name": "TOTAL_MAX",
      "outputs": [
        {
          "internalType": "uint256",
          "name": "",
          "type": "uint256"
        }
      ],
      "stateMutability": "view",
      "type": "function"
    },
    {
      "inputs": [
        {
          "internalType": "address",
          "name": "member",
          "type": "address"
        }
      ],
      "name": "addTeamMember",
      "outputs": [],
      "stateMutability": "nonpayable",
      "type": "function"
    },
    {
      "inputs": [
        {
          "internalType": "address",
          "name": "to",
          "type": "address"
        },
        {
          "internalType": "uint256",
          "name": "tokenId",
          "type": "uint256"
        }
      ],
      "name": "approve",
      "outputs": [],
      "stateMutability": "nonpayable",
      "type": "function"
    },
    {
      "inputs": [
        {
          "internalType": "address",
          "name": "owner",
          "type": "address"
        }
      ],
      "name": "balanceOf",
      "outputs": [
        {
          "internalType": "uint256",
          "name": "",
          "type": "uint256"
        }
      ],
      "stateMutability": "view",
      "type": "function"
    },
    {
      "inputs": [
        {
          "internalType": "uint32",
          "name": "publicSaleStartTime",
          "type": "uint32"
        },
        {
          "internalType": "uint64",
          "name": "publicSalePriceWei",
          "type": "uint64"
        },
        {
          "internalType": "uint64",
          "name": "maxPerAddressDuringPublicSaleMint",
          "type": "uint64"
        }
      ],
      "name": "endpRESaleAndSetupPublicSale",
      "outputs": [],
      "stateMutability": "nonpayable",
      "type": "function"
    },
    {
      "inputs": [
        {
          "internalType": "uint256",
          "name": "tokenId",
          "type": "uint256"
        }
      ],
      "name": "getApproved",
      "outputs": [
        {
          "internalType": "address",
          "name": "",
          "type": "address"
        }
      ],
      "stateMutability": "view",
      "type": "function"
    },
    {
      "inputs": [
        {
          "internalType": "uint256",
          "name": "tokenId",
          "type": "uint256"
        }
      ],
      "name": "getOwnershipData",
      "outputs": [
        {
          "components": [
            {
              "internalType": "address",
              "name": "addr",
              "type": "address"
            },
            {
              "internalType": "uint64",
              "name": "startTimestamp",
              "type": "uint64"
            },
            {
              "internalType": "bool",
              "name": "burned",
              "type": "bool"
            },
            {
              "internalType": "uint24",
              "name": "extraData",
              "type": "uint24"
            }
          ],
          "internalType": "struct IERC721A.TokenOwnership",
          "name": "",
          "type": "tuple"
        }
      ],
      "stateMutability": "view",
      "type": "function"
    },
    {
      "inputs": [
        {
          "internalType": "address",
          "name": "owner",
          "type": "address"
        },
        {
          "internalType": "address",
          "name": "operator",
          "type": "address"
        }
      ],
      "name": "isApprovedForAll",
      "outputs": [
        {
          "internalType": "bool",
          "name": "",
          "type": "bool"
        }
      ],
      "stateMutability": "view",
      "type": "function"
    },
    {
      "inputs": [
        {
          "internalType": "address",
          "name": "",
          "type": "address"
        }
      ],
      "name": "memberHasMinted",
      "outputs": [
        {
          "internalType": "bool",
          "name": "",
          "type": "bool"
        }
      ],
      "stateMutability": "view",
      "type": "function"
    },
    {
      "inputs": [],
      "name": "name",
      "outputs": [
        {
          "internalType": "string",
          "name": "",
          "type": "string"
        }
      ],
      "stateMutability": "view",
      "type": "function"
    },
    {
      "inputs": [
        {
          "internalType": "address",
          "name": "owner",
          "type": "address"
        }
      ],
      "name": "numberMinted",
      "outputs": [
        {
          "internalType": "uint256",
          "name": "",
          "type": "uint256"
        }
      ],
      "stateMutability": "view",
      "type": "function"
    },
    {
      "inputs": [],
      "name": "owner",
      "outputs": [
        {
          "internalType": "address",
          "name": "",
          "type": "address"
        }
      ],
      "stateMutability": "view",
      "type": "function"
    },
    {
      "inputs": [
        {
          "internalType": "uint256",
          "name": "tokenId",
          "type": "uint256"
        }
      ],
      "name": "ownerOf",
      "outputs": [
        {
          "internalType": "address",
          "name": "",
          "type": "address"
        }
      ],
      "stateMutability": "view",
      "type": "function"
    },
    {
      "inputs": [
        {
          "internalType": "bytes32[]",
          "name": "_merkleProof",
          "type": "bytes32[]"
        },
        {
          "internalType": "uint64",
          "name": "quantity",
          "type": "uint64"
        }
      ],
      "name": "presaleMint",
      "outputs": [],
      "stateMutability": "payable",
      "type": "function"
    },
    {
      "inputs": [],
      "name": "presaleProps",
      "outputs": [
        {
          "internalType": "bytes32",
          "name": "merkleRoot",
          "type": "bytes32"
        },
        {
          "internalType": "uint32",
          "name": "startTime",
          "type": "uint32"
        },
        {
          "internalType": "uint64",
          "name": "price",
          "type": "uint64"
        },
        {
          "internalType": "uint64",
          "name": "maxPerAddress",
          "type": "uint64"
        }
      ],
      "stateMutability": "view",
      "type": "function"
    },
    {
      "inputs": [
        {
          "internalType": "uint64",
          "name": "quantity",
          "type": "uint64"
        }
      ],
      "name": "publicSaleMint",
      "outputs": [],
      "stateMutability": "payable",
      "type": "function"
    },
    {
      "inputs": [],
      "name": "publicSaleProps",
      "outputs": [
        {
          "internalType": "uint32",
          "name": "startTime",
          "type": "uint32"
        },
        {
          "internalType": "uint64",
          "name": "price",
          "type": "uint64"
        },
        {
          "internalType": "uint64",
          "name": "maxPerAddress",
          "type": "uint64"
        }
      ],
      "stateMutability": "view",
      "type": "function"
    },
    {
      "inputs": [],
      "name": "renounceOwnership",
      "outputs": [],
      "stateMutability": "nonpayable",
      "type": "function"
    },
    {
      "inputs": [],
      "name": "reserveCount",
      "outputs": [
        {
          "internalType": "uint256",
          "name": "",
          "type": "uint256"
        }
      ],
      "stateMutability": "view",
      "type": "function"
    },
    {
      "inputs": [],
      "name": "revealed",
      "outputs": [
        {
          "internalType": "bool",
          "name": "",
          "type": "bool"
        }
      ],
      "stateMutability": "view",
      "type": "function"
    },
    {
      "inputs": [
        {
          "internalType": "address",
          "name": "from",
          "type": "address"
        },
        {
          "internalType": "address",
          "name": "to",
          "type": "address"
        },
        {
          "internalType": "uint256",
          "name": "tokenId",
          "type": "uint256"
        }
      ],
      "name": "safeTransferFrom",
      "outputs": [],
      "stateMutability": "nonpayable",
      "type": "function"
    },
    {
      "inputs": [
        {
          "internalType": "address",
          "name": "from",
          "type": "address"
        },
        {
          "internalType": "address",
          "name": "to",
          "type": "address"
        },
        {
          "internalType": "uint256",
          "name": "tokenId",
          "type": "uint256"
        },
        {
          "internalType": "bytes",
          "name": "_data",
          "type": "bytes"
        }
      ],
      "name": "safeTransferFrom",
      "outputs": [],
      "stateMutability": "nonpayable",
      "type": "function"
    },
    {
      "inputs": [
        {
          "internalType": "address",
          "name": "operator",
          "type": "address"
        },
        {
          "internalType": "bool",
          "name": "approved",
          "type": "bool"
        }
      ],
      "name": "setApprovalForAll",
      "outputs": [],
      "stateMutability": "nonpayable",
      "type": "function"
    },
    {
      "inputs": [
        {
          "internalType": "string",
          "name": "baseURI",
          "type": "string"
        }
      ],
      "name": "setBaseURI",
      "outputs": [],
      "stateMutability": "nonpayable",
      "type": "function"
    },
    {
      "inputs": [
        {
          "internalType": "bytes32",
          "name": "root",
          "type": "bytes32"
        }
      ],
      "name": "setMerkleRoot",
      "outputs": [],
      "stateMutability": "nonpayable",
      "type": "function"
    },
    {
      "inputs": [
        {
          "internalType": "bytes32",
          "name": "merkleRoot",
          "type": "bytes32"
        },
        {
          "internalType": "uint32",
          "name": "presaleStartTime",
          "type": "uint32"
        },
        {
          "internalType": "uint64",
          "name": "presalePriceWei",
          "type": "uint64"
        },
        {
          "internalType": "uint64",
          "name": "maxPerAddressDuringPresaleMint",
          "type": "uint64"
        }
      ],
      "name": "setPresaleProps",
      "outputs": [],
      "stateMutability": "nonpayable",
      "type": "function"
    },
    {
      "inputs": [
        {
          "internalType": "bytes4",
          "name": "interfaceId",
          "type": "bytes4"
        }
      ],
      "name": "supportsInterface",
      "outputs": [
        {
          "internalType": "bool",
          "name": "",
          "type": "bool"
        }
      ],
      "stateMutability": "view",
      "type": "function"
    },
    {
      "inputs": [],
      "name": "symbol",
      "outputs": [
        {
          "internalType": "string",
          "name": "",
          "type": "string"
        }
      ],
      "stateMutability": "view",
      "type": "function"
    },
    {
      "inputs": [
        {
          "internalType": "address",
          "name": "",
          "type": "address"
        }
      ],
      "name": "teamMember",
      "outputs": [
        {
          "internalType": "bool",
          "name": "",
          "type": "bool"
        }
      ],
      "stateMutability": "view",
      "type": "function"
    },
    {
      "inputs": [],
      "name": "teamMint",
      "outputs": [],
      "stateMutability": "nonpayable",
      "type": "function"
    },
    {
      "inputs": [
        {
          "internalType": "uint256",
          "name": "_tokenId",
          "type": "uint256"
        }
      ],
      "name": "tokenURI",
      "outputs": [
        {
          "internalType": "string",
          "name": "",
          "type": "string"
        }
      ],
      "stateMutability": "view",
      "type": "function"
    },
    {
      "inputs": [],
      "name": "totalSupply",
      "outputs": [
        {
          "internalType": "uint256",
          "name": "",
          "type": "uint256"
        }
      ],
      "stateMutability": "view",
      "type": "function"
    },
    {
      "inputs": [
        {
          "internalType": "address",
          "name": "from",
          "type": "address"
        },
        {
          "internalType": "address",
          "name": "to",
          "type": "address"
        },
        {
          "internalType": "uint256",
          "name": "tokenId",
          "type": "uint256"
        }
      ],
      "name": "transferFrom",
      "outputs": [],
      "stateMutability": "nonpayable",
      "type": "function"
    },
    {
      "inputs": [
        {
          "internalType": "address",
          "name": "newOwner",
          "type": "address"
        }
      ],
      "name": "transferOwnership",
      "outputs": [],
      "stateMutability": "nonpayable",
      "type": "function"
    },
    {
      "inputs": [],
      "name": "whitelistCount",
      "outputs": [
        {
          "internalType": "uint256",
          "name": "",
          "type": "uint256"
        }
      ],
      "stateMutability": "view",
      "type": "function"
    },
    {
      "inputs": [],
      "name": "withdrawMoney",
      "outputs": [],
      "stateMutability": "nonpayable",
      "type": "function"
    }
  ],
  "bytecode": {
    "object": "0x60806040523480156200001157600080fd5b506040805180820182526007815266223932b0b6b2b960c91b60208083019182528351808501909452600384526244524d60e81b9084015281519192916200005c91600291620000e1565b50805162000072906003906020840190620000e1565b5050600080555062000084336200008f565b6001600955620001c4565b600880546001600160a01b038381166001600160a01b0319831681179093556040519116919082907f8be0079c531659141344cd1fd0a4f28419497f9722a3daafe3b4186f6b6457e090600090a35050565b828054620000ef9062000187565b90600052602060002090601f0160209004810192826200011357600085556200015e565b82601f106200012e57805160ff19168380011785556200015e565b828001600101855582156200015e579182015b828111156200015e57825182559160200191906001019062000141565b506200016c92915062000170565b5090565b5b808211156200016c576000815560010162000171565b600181811c908216806200019c57607f821691505b60208210811415620001be57634e487b7160e01b600052602260045260246000fd5b50919050565b61240e80620001d46000396000f3fe60806040526004361061023b5760003560e01c80637cb647591161012e578063c3dc6ecf116100ab578063e985e9c51161006f578063e985e9c5146106b7578063f2624b5d14610700578063f2fde38b14610716578063f734eb9f14610736578063ff4c61301461079c57600080fd5b8063c3dc6ecf14610639578063c87b56dd1461064e578063d598135e1461066e578063d63dd70114610684578063dc33e6811461069757600080fd5b8063a08a81d7116100f2578063a08a81d7146105b9578063a22cb465146105cf578063ac446002146105ef578063b88d4fde14610604578063ba7a86b81461062457600080fd5b80637cb64759146104da57806386700b59146104fa5780638da5cb5b1461051a5780639231ab2a1461053857806395d89b41146105a457600080fd5b806342842e0e116101bc5780636352211e116101805780636352211e146104505780636a7aa3cf1461047057806370a0823114610490578063715018a6146104b057806375296b86146104c557600080fd5b806342842e0e146103b357806347fa1e75146103d357806351830227146103e657806355f804b31461040057806363518e761461042057600080fd5b806318160ddd1161020357806318160ddd1461031557806323b872dd1461032e578063303fe55d1461034e578063383bbce51461037e5780633eb2b5ad1461039357600080fd5b806301ffc9a71461024057806306fdde0314610275578063081812fc14610297578063095ea7b3146102cf57806316317c21146102f1575b600080fd5b34801561024c57600080fd5b5061026061025b366004611cd7565b61080e565b60405190151581526020015b60405180910390f35b34801561028157600080fd5b5061028a610860565b60405161026c9190611d4c565b3480156102a357600080fd5b506102b76102b2366004611d5f565b6108f2565b6040516001600160a01b03909116815260200161026c565b3480156102db57600080fd5b506102ef6102ea366004611d94565b610936565b005b3480156102fd57600080fd5b50610307600b5481565b60405190815260200161026c565b34801561032157600080fd5b5060015460005403610307565b34801561033a57600080fd5b506102ef610349366004611dbe565b6109d6565b34801561035a57600080fd5b50610260610369366004611dfa565b60116020526000908152604090205460ff1681565b34801561038a57600080fd5b50610307600581565b34801561039f57600080fd5b506102ef6103ae366004611dfa565b610b67565b3480156103bf57600080fd5b506102ef6103ce366004611dbe565b610b93565b6102ef6103e1366004611e2c565b610bb3565b3480156103f257600080fd5b50600d546102609060ff1681565b34801561040c57600080fd5b506102ef61041b366004611eaf565b610e60565b34801561042c57600080fd5b5061026061043b366004611dfa565b60126020526000908152604090205460ff1681565b34801561045c57600080fd5b506102b761046b366004611d5f565b610e74565b34801561047c57600080fd5b506102ef61048b366004611f34565b610e7f565b34801561049c57600080fd5b506103076104ab366004611dfa565b610ee1565b3480156104bc57600080fd5b506102ef610f2f565b3480156104d157600080fd5b50610307606481565b3480156104e657600080fd5b506102ef6104f5366004611d5f565b610f43565b34801561050657600080fd5b506102ef610515366004611f6e565b610f50565b34801561052657600080fd5b506008546001600160a01b03166102b7565b34801561054457600080fd5b50610558610553366004611d5f565b610fae565b60405161026c919081516001600160a01b031681526020808301516001600160401b03169082015260408083015115159082015260609182015162ffffff169181019190915260800190565b3480156105b057600080fd5b5061028a610fdb565b3480156105c557600080fd5b5061030761271081565b3480156105db57600080fd5b506102ef6105ea366004611fbb565b610fea565b3480156105fb57600080fd5b506102ef611080565b34801561061057600080fd5b506102ef61061f36600461200d565b611142565b34801561063057600080fd5b506102ef61118c565b34801561064557600080fd5b50610307600381565b34801561065a57600080fd5b5061028a610669366004611d5f565b6112f4565b34801561067a57600080fd5b5061030761138881565b6102ef6106923660046120e8565b611395565b3480156106a357600080fd5b506103076106b2366004611dfa565b611570565b3480156106c357600080fd5b506102606106d2366004612103565b6001600160a01b03918216600090815260076020908152604080832093909416825291909152205460ff1690565b34801561070c57600080fd5b50610307600a5481565b34801561072257600080fd5b506102ef610731366004611dfa565b61159a565b34801561074257600080fd5b506010546107709063ffffffff8116906001600160401b036401000000008204811691600160601b90041683565b6040805163ffffffff90941684526001600160401b03928316602085015291169082015260600161026c565b3480156107a857600080fd5b50600e54600f546107da919063ffffffff8116906001600160401b036401000000008204811691600160601b90041684565b6040805194855263ffffffff90931660208501526001600160401b039182169284019290925216606082015260800161026c565b60006301ffc9a760e01b6001600160e01b03198316148061083f57506380ac58cd60e01b6001600160e01b03198316145b8061085a5750635b5e139f60e01b6001600160e01b03198316145b92915050565b60606002805461086f90612136565b80601f016020809104026020016040519081016040528092919081815260200182805461089b90612136565b80156108e85780601f106108bd576101008083540402835291602001916108e8565b820191906000526020600020905b8154815290600101906020018083116108cb57829003601f168201915b5050505050905090565b60006108fd82611613565b61091a576040516333d1c03960e21b815260040160405180910390fd5b506000908152600660205260409020546001600160a01b031690565b600061094182610e74565b9050336001600160a01b0382161461097a5761095d81336106d2565b61097a576040516367d9dca160e11b815260040160405180910390fd5b60008281526006602052604080822080546001600160a01b0319166001600160a01b0387811691821790925591518593918516917f8c5be1e5ebec7d5bd14f71427d1e84f3dd0314c0f7b2291e5b200ac8c7c3b92591a4505050565b60006109e18261163a565b9050836001600160a01b0316816001600160a01b031614610a145760405162a1148160e81b815260040160405180910390fd5b60008281526006602052604090208054338082146001600160a01b03881690911417610a6157610a4486336106d2565b610a6157604051632ce44b5f60e11b815260040160405180910390fd5b6001600160a01b038516610a8857604051633a954ecd60e21b815260040160405180910390fd5b8015610a9357600082555b6001600160a01b038681166000908152600560205260408082208054600019019055918716808252919020805460010190554260a01b17600160e11b17600085815260046020526040902055600160e11b8316610b1e5760018401600081815260046020526040902054610b1c576000548114610b1c5760008181526004602052604090208490555b505b83856001600160a01b0316876001600160a01b03167fddf252ad1be2c89b69c2b068fc378daa952ba7f163c4a11628f55a4df523b3ef60405160405180910390a4505050505050565b610b6f6116a2565b6001600160a01b03166000908152601160205260409020805460ff19166001179055565b610bae83838360405180602001604052806000815250611142565b505050565b60026009541415610bdf5760405162461bcd60e51b8152600401610bd690612171565b60405180910390fd5b6002600955600f546001600160401b03640100000000820481169163ffffffff811691600160601b9091041682610c585760405162461bcd60e51b815260206004820181905260248201527f77686974656c6973742073616c6520686173206e6f7420626567756e207965746044820152606401610bd6565b8115801590610c675750814210155b610cb35760405162461bcd60e51b815260206004820152601960248201527f70726573616c6520686173206e6f7420626567756e20796574000000000000006044820152606401610bd6565b612710846001600160401b0316610ccd6001546000540390565b610cd791906121be565b1115610cf55760405162461bcd60e51b8152600401610bd6906121d6565b6040516001600160601b03193360601b166020820152600090603401604051602081830303815290604052805190602001209050610d6a87878080602002602001604051908101604052809392919081815260200183836020028082843760009201919091525050600e5491508490506116fc565b610db65760405162461bcd60e51b815260206004820152601760248201527f696e76616c69642077686974656c6973742070726f6f660000000000000000006044820152606401610bd6565b816001600160401b0316856001600160401b0316610dd333611570565b610ddd91906121be565b1115610e245760405162461bcd60e51b815260206004820152601660248201527563616e206e6f74206d696e742074686973206d616e7960501b6044820152606401610bd6565b610e3733866001600160401b0316611712565b610e52610e4d6001600160401b03871686612202565b611730565b505060016009555050505050565b610e686116a2565b610bae600c8383611c28565b600061085a8261163a565b610e876116a2565b600f805463ffffffff191690556010805463ffffffff949094166001600160601b0319909416939093176401000000006001600160401b03938416021767ffffffffffffffff60601b1916600160601b9190921602179055565b60006001600160a01b038216610f0a576040516323d3ad8160e21b815260040160405180910390fd5b506001600160a01b03166000908152600560205260409020546001600160401b031690565b610f376116a2565b610f4160006117b6565b565b610f4b6116a2565b600e55565b610f586116a2565b600e93909355600f805463ffffffff939093166001600160601b0319909316929092176401000000006001600160401b03928316021767ffffffffffffffff60601b1916600160601b9190931602919091179055565b60408051608081018252600080825260208201819052918101829052606081019190915261085a82611808565b60606003805461086f90612136565b6001600160a01b0382163314156110145760405163b06307db60e01b815260040160405180910390fd5b3360008181526007602090815260408083206001600160a01b03871680855290835292819020805460ff191686151590811790915590519081529192917f17307eab39ab6107e8899845ad3d59bd9653f200f220920489ca2b5937696c31910160405180910390a35050565b6110886116a2565b600260095414156110ab5760405162461bcd60e51b8152600401610bd690612171565b6002600955604051600090339047908381818185875af1925050503d80600081146110f2576040519150601f19603f3d011682016040523d82523d6000602084013e6110f7565b606091505b505090508061113a5760405162461bcd60e51b815260206004820152600f60248201526e1d1c985b9cd9995c8819985a5b1959608a1b6044820152606401610bd6565b506001600955565b61114d8484846109d6565b6001600160a01b0383163b15611186576111698484848461187f565b611186576040516368d2bf6b60e11b815260040160405180910390fd5b50505050565b600260095414156111af5760405162461bcd60e51b8152600401610bd690612171565b60026009553360009081526011602052604090205460ff1615156001146112185760405162461bcd60e51b815260206004820152601860248201527f6e6f742061206d656d626572206f6e20746865207465616d00000000000000006044820152606401610bd6565b3360009081526012602052604090205460ff161561128e5760405162461bcd60e51b815260206004820152602d60248201527f7465616d4d696e743a20796f7520686176652070726576696f75736c79206d6960448201526c1b9d1959081e5bdd5c88139195609a1b6064820152608401610bd6565b61271060056112a06001546000540390565b6112aa91906121be565b11156112c85760405162461bcd60e51b8152600401610bd6906121d6565b336000818152601260205260409020805460ff191660011790556112ed906005611712565b6001600955565b60606112ff82611613565b6113635760405162461bcd60e51b815260206004820152602f60248201527f4552433732314d657461646174613a2055524920717565727920666f72206e6f60448201526e3732bc34b9ba32b73a103a37b5b2b760891b6064820152608401610bd6565b600c61136e83611968565b60405160200161137f92919061223d565b6040516020818303038152906040529050919050565b600260095414156113b85760405162461bcd60e51b8152600401610bd690612171565b60026009556010546001600160401b03640100000000820481169163ffffffff811691600160601b90910416826114315760405162461bcd60e51b815260206004820152601d60248201527f7075626c69632073616c6520686173206e6f7420626567756e207965740000006044820152606401610bd6565b81158015906114405750814210155b61148c5760405162461bcd60e51b815260206004820152601d60248201527f7075626c69632073616c6520686173206e6f7420626567756e207965740000006044820152606401610bd6565b612710846001600160401b03166114a66001546000540390565b6114b091906121be565b11156114ce5760405162461bcd60e51b8152600401610bd6906121d6565b806001600160401b0316846001600160401b03166114eb33611570565b6114f591906121be565b111561153c5760405162461bcd60e51b815260206004820152601660248201527563616e206e6f74206d696e742074686973206d616e7960501b6044820152606401610bd6565b61154f33856001600160401b0316611712565b611565610e4d6001600160401b03861685612202565b505060016009555050565b6001600160a01b038116600090815260056020526040808220546001600160401b03911c1661085a565b6115a26116a2565b6001600160a01b0381166116075760405162461bcd60e51b815260206004820152602660248201527f4f776e61626c653a206e6577206f776e657220697320746865207a65726f206160448201526564647265737360d01b6064820152608401610bd6565b611610816117b6565b50565b600080548210801561085a575050600090815260046020526040902054600160e01b161590565b60008160005481101561168957600081815260046020526040902054600160e01b8116611687575b80611680575060001901600081815260046020526040902054611662565b9392505050565b505b604051636f96cda160e11b815260040160405180910390fd5b6008546001600160a01b03163314610f415760405162461bcd60e51b815260206004820181905260248201527f4f776e61626c653a2063616c6c6572206973206e6f7420746865206f776e65726044820152606401610bd6565b6000826117098584611a65565b14949350505050565b61172c828260405180602001604052806000815250611ab2565b5050565b803410156117785760405162461bcd60e51b81526020600482015260156024820152740dccacac840e8de40e6cadcc840dadee4ca408aa89605b1b6044820152606401610bd6565b8034111561161057336108fc61178e83346122f8565b6040518115909202916000818181858888f1935050505015801561172c573d6000803e3d6000fd5b600880546001600160a01b038381166001600160a01b0319831681179093556040519116919082907f8be0079c531659141344cd1fd0a4f28419497f9722a3daafe3b4186f6b6457e090600090a35050565b60408051608081018252600080825260208201819052918101829052606081019190915261085a6118388361163a565b604080516080810182526001600160a01b038316815260a083901c6001600160401b03166020820152600160e01b831615159181019190915260e89190911c606082015290565b604051630a85bd0160e11b81526000906001600160a01b0385169063150b7a02906118b490339089908890889060040161230f565b6020604051808303816000875af19250505080156118ef575060408051601f3d908101601f191682019092526118ec9181019061234c565b60015b61194a573d80801561191d576040519150601f19603f3d011682016040523d82523d6000602084013e611922565b606091505b508051611942576040516368d2bf6b60e11b815260040160405180910390fd5b805181602001fd5b6001600160e01b031916630a85bd0160e11b1490505b949350505050565b60608161198c5750506040805180820190915260018152600360fc1b602082015290565b8160005b81156119b657806119a081612369565b91506119af9050600a8361239a565b9150611990565b6000816001600160401b038111156119d0576119d0611ff7565b6040519080825280601f01601f1916602001820160405280156119fa576020820181803683370190505b5090505b841561196057611a0f6001836122f8565b9150611a1c600a866123ae565b611a279060306121be565b60f81b818381518110611a3c57611a3c6123c2565b60200101906001600160f81b031916908160001a905350611a5e600a8661239a565b94506119fe565b600081815b8451811015611aaa57611a9682868381518110611a8957611a896123c2565b6020026020010151611b1f565b915080611aa281612369565b915050611a6a565b509392505050565b611abc8383611b4b565b6001600160a01b0383163b15610bae576000548281035b611ae6600086838060010194508661187f565b611b03576040516368d2bf6b60e11b815260040160405180910390fd5b818110611ad3578160005414611b1857600080fd5b5050505050565b6000818310611b3b576000828152602084905260409020611680565b5060009182526020526040902090565b6000546001600160a01b038316611b7457604051622e076360e81b815260040160405180910390fd5b81611b925760405163b562e8dd60e01b815260040160405180910390fd5b6001600160a01b038316600081815260056020526040902080546801000000000000000185020190554260a01b6001841460e11b1717600082815260046020526040902055808281015b6040516001830192906001600160a01b038716906000907fddf252ad1be2c89b69c2b068fc378daa952ba7f163c4a11628f55a4df523b3ef908290a4808210611bdc5760005550505050565b828054611c3490612136565b90600052602060002090601f016020900481019282611c565760008555611c9c565b82601f10611c6f5782800160ff19823516178555611c9c565b82800160010185558215611c9c579182015b82811115611c9c578235825591602001919060010190611c81565b50611ca8929150611cac565b5090565b5b80821115611ca85760008155600101611cad565b6001600160e01b03198116811461161057600080fd5b600060208284031215611ce957600080fd5b813561168081611cc1565b60005b83811015611d0f578181015183820152602001611cf7565b838111156111865750506000910152565b60008151808452611d38816020860160208601611cf4565b601f01601f19169290920160200192915050565b6020815260006116806020830184611d20565b600060208284031215611d7157600080fd5b5035919050565b80356001600160a01b0381168114611d8f57600080fd5b919050565b60008060408385031215611da757600080fd5b611db083611d78565b946020939093013593505050565b600080600060608486031215611dd357600080fd5b611ddc84611d78565b9250611dea60208501611d78565b9150604084013590509250925092565b600060208284031215611e0c57600080fd5b61168082611d78565b80356001600160401b0381168114611d8f57600080fd5b600080600060408486031215611e4157600080fd5b83356001600160401b0380821115611e5857600080fd5b818601915086601f830112611e6c57600080fd5b813581811115611e7b57600080fd5b8760208260051b8501011115611e9057600080fd5b602092830195509350611ea69186019050611e15565b90509250925092565b60008060208385031215611ec257600080fd5b82356001600160401b0380821115611ed957600080fd5b818501915085601f830112611eed57600080fd5b813581811115611efc57600080fd5b866020828501011115611f0e57600080fd5b60209290920196919550909350505050565b803563ffffffff81168114611d8f57600080fd5b600080600060608486031215611f4957600080fd5b611f5284611f20565b9250611f6060208501611e15565b9150611ea660408501611e15565b60008060008060808587031215611f8457600080fd5b84359350611f9460208601611f20565b9250611fa260408601611e15565b9150611fb060608601611e15565b905092959194509250565b60008060408385031215611fce57600080fd5b611fd783611d78565b915060208301358015158114611fec57600080fd5b809150509250929050565b634e487b7160e01b600052604160045260246000fd5b6000806000806080858703121561202357600080fd5b61202c85611d78565b935061203a60208601611d78565b92506040850135915060608501356001600160401b038082111561205d57600080fd5b818701915087601f83011261207157600080fd5b81358181111561208357612083611ff7565b604051601f8201601f19908116603f011681019083821181831017156120ab576120ab611ff7565b816040528281528a60208487010111156120c457600080fd5b82602086016020830137600060208483010152809550505050505092959194509250565b6000602082840312156120fa57600080fd5b61168082611e15565b6000806040838503121561211657600080fd5b61211f83611d78565b915061212d60208401611d78565b90509250929050565b600181811c9082168061214a57607f821691505b6020821081141561216b57634e487b7160e01b600052602260045260246000fd5b50919050565b6020808252601f908201527f5265656e7472616e637947756172643a207265656e7472616e742063616c6c00604082015260600190565b634e487b7160e01b600052601160045260246000fd5b600082198211156121d1576121d16121a8565b500190565b60208082526012908201527172656163686564206d617820737570706c7960701b604082015260600190565b600081600019048311821515161561221c5761221c6121a8565b500290565b60008151612233818560208601611cf4565b9290920192915050565b600080845481600182811c91508083168061225957607f831692505b602080841082141561227957634e487b7160e01b86526022600452602486fd5b81801561228d576001811461229e576122cb565b60ff198616895284890196506122cb565b60008b81526020902060005b868110156122c35781548b8201529085019083016122aa565b505084890196505b5050505050506122ef6122de8286612221565b64173539b7b760d91b815260050190565b95945050505050565b60008282101561230a5761230a6121a8565b500390565b6001600160a01b038581168252841660208201526040810183905260806060820181905260009061234290830184611d20565b9695505050505050565b60006020828403121561235e57600080fd5b815161168081611cc1565b600060001982141561237d5761237d6121a8565b5060010190565b634e487b7160e01b600052601260045260246000fd5b6000826123a9576123a9612384565b500490565b6000826123bd576123bd612384565b500690565b634e487b7160e01b600052603260045260246000fdfea2646970667358221220726855b250da4065887647f8d8e0c9c71f07d29c771a2876fbd9e71e5c7a0d1864736f6c634300080a0033",
    "linkReferences": {}
  }
}