{
  "abi": [
    {
      "inputs": [],
      "stateMutability": "nonpayable",
      "type": "constructor"
    },
    {
      "inputs": [],
      "name": "ApprovalCallerNotOwnerNorApproved",
      "type": "error"
    },
    {
      "inputs": [],
      "name": "ApprovalQueryForNonexistentToken",
      "type": "error"
    },
    {
      "inputs": [],
      "name": "ApproveToCaller",
      "type": "error"
    },
    {
      "inputs": [],
      "name": "BalanceQueryForZeroAddress",
      "type": "error"
    },
    {
      "inputs": [],
      "name": "MintERC2309QuantityExceedsLimit",
      "type": "error"
    },
    {
      "inputs": [],
      "name": "MintToZeroAddress",
      "type": "error"
    },
    {
      "inputs": [],
      "name": "MintZeroQuantity",
      "type": "error"
    },
    {
      "inputs": [],
      "name": "OwnerQueryForNonexistentToken",
      "type": "error"
    },
    {
      "inputs": [],
      "name": "OwnershipNotInitializedForExtraData",
      "type": "error"
    },
    {
      "inputs": [],
      "name": "TransferCallerNotOwnerNorApproved",
      "type": "error"
    },
    {
      "inputs": [],
      "name": "TransferFromIncorrectOwner",
      "type": "error"
    },
    {
      "inputs": [],
      "name": "TransferToNonERC721ReceiverImplementer",
      "type": "error"
    },
    {
      "inputs": [],
      "name": "TransferToZeroAddress",
      "type": "error"
    },
    {
      "inputs": [],
      "name": "URIQueryForNonexistentToken",
      "type": "error"
    },
    {
      "anonymous": false,
      "inputs": [
        {
          "indexed": true,
          "internalType": "address",
          "name": "owner",
          "type": "address"
        },
        {
          "indexed": true,
          "internalType": "address",
          "name": "approved",
          "type": "address"
        },
        {
          "indexed": true,
          "internalType": "uint256",
          "name": "tokenId",
          "type": "uint256"
        }
      ],
      "name": "Approval",
      "type": "event"
    },
    {
      "anonymous": false,
      "inputs": [
        {
          "indexed": true,
          "internalType": "address",
          "name": "owner",
          "type": "address"
        },
        {
          "indexed": true,
          "internalType": "address",
          "name": "operator",
          "type": "address"
        },
        {
          "indexed": false,
          "internalType": "bool",
          "name": "approved",
          "type": "bool"
        }
      ],
      "name": "ApprovalForAll",
      "type": "event"
    },
    {
      "anonymous": false,
      "inputs": [
        {
          "indexed": true,
          "internalType": "uint256",
          "name": "fromTokenId",
          "type": "uint256"
        },
        {
          "indexed": false,
          "internalType": "uint256",
          "name": "toTokenId",
          "type": "uint256"
        },
        {
          "indexed": true,
          "internalType": "address",
          "name": "from",
          "type": "address"
        },
        {
          "indexed": true,
          "internalType": "address",
          "name": "to",
          "type": "address"
        }
      ],
      "name": "ConsecutiveTransfer",
      "type": "event"
    },
    {
      "anonymous": false,
      "inputs": [
        {
          "indexed": true,
          "internalType": "address",
          "name": "previousOwner",
          "type": "address"
        },
        {
          "indexed": true,
          "internalType": "address",
          "name": "newOwner",
          "type": "address"
        }
      ],
      "name": "OwnershipTransferred",
      "type": "event"
    },
    {
      "anonymous": false,
      "inputs": [
        {
          "indexed": true,
          "internalType": "address",
          "name": "from",
          "type": "address"
        },
        {
          "indexed": true,
          "internalType": "address",
          "name": "to",
          "type": "address"
        },
        {
          "indexed": true,
          "internalType": "uint256",
          "name": "tokenId",
          "type": "uint256"
        }
      ],
      "name": "Transfer",
      "type": "event"
    },
    {
      "inputs": [],
      "name": "AMOUNTFORTEAM",
      "outputs": [
        {
          "internalType": "uint256",
          "name": "",
          "type": "uint256"
        }
      ],
      "stateMutability": "view",
      "type": "function"
    },
    {
      "inputs": [],
      "name": "MAX_SALE_QUANTITY",
      "outputs": [
        {
          "internalType": "uint256",
          "name": "",
          "type": "uint256"
        }
      ],
      "stateMutability": "view",
      "type": "function"
    },
    {
      "inputs": [],
      "name": "PRESALE_MAX",
      "outputs": [
        {
          "internalType": "uint256",
          "name": "",
          "type": "uint256"
        }
      ],
      "stateMutability": "view",
      "type": "function"
    },
    {
      "inputs": [],
      "name": "TEAM_MAX",
      "outputs": [
        {
          "internalType": "uint256",
          "name": "",
          "type": "uint256"
        }
      ],
      "stateMutability": "view",
      "type": "function"
    },
    {
      "inputs": [],
      "name": "TOTAL_MAX",
      "outputs": [
        {
          "internalType": "uint256",
          "name": "",
          "type": "uint256"
        }
      ],
      "stateMutability": "view",
      "type": "function"
    },
    {
      "inputs": [
        {
          "internalType": "address",
          "name": "member",
          "type": "address"
        }
      ],
      "name": "addTeamMember",
      "outputs": [],
      "stateMutability": "nonpayable",
      "type": "function"
    },
    {
      "inputs": [
        {
          "internalType": "address",
          "name": "to",
          "type": "address"
        },
        {
          "internalType": "uint256",
          "name": "tokenId",
          "type": "uint256"
        }
      ],
      "name": "approve",
      "outputs": [],
      "stateMutability": "nonpayable",
      "type": "function"
    },
    {
      "inputs": [
        {
          "internalType": "address",
          "name": "owner",
          "type": "address"
        }
      ],
      "name": "balanceOf",
      "outputs": [
        {
          "internalType": "uint256",
          "name": "",
          "type": "uint256"
        }
      ],
      "stateMutability": "view",
      "type": "function"
    },
    {
      "inputs": [
        {
          "internalType": "uint32",
          "name": "publicSaleStartTime",
          "type": "uint32"
        },
        {
          "internalType": "uint64",
          "name": "publicSalePriceWei",
          "type": "uint64"
        },
        {
          "internalType": "uint64",
          "name": "maxPerAddressDuringPublicSaleMint",
          "type": "uint64"
        }
      ],
      "name": "endPreSaleAndSetupPublicSale",
      "outputs": [],
      "stateMutability": "nonpayable",
      "type": "function"
    },
    {
      "inputs": [
        {
          "internalType": "uint256",
          "name": "tokenId",
          "type": "uint256"
        }
      ],
      "name": "getApproved",
      "outputs": [
        {
          "internalType": "address",
          "name": "",
          "type": "address"
        }
      ],
      "stateMutability": "view",
      "type": "function"
    },
    {
      "inputs": [
        {
          "internalType": "uint256",
          "name": "tokenId",
          "type": "uint256"
        }
      ],
      "name": "getOwnershipData",
      "outputs": [
        {
          "components": [
            {
              "internalType": "address",
              "name": "addr",
              "type": "address"
            },
            {
              "internalType": "uint64",
              "name": "startTimestamp",
              "type": "uint64"
            },
            {
              "internalType": "bool",
              "name": "burned",
              "type": "bool"
            },
            {
              "internalType": "uint24",
              "name": "extraData",
              "type": "uint24"
            }
          ],
          "internalType": "struct IERC721A.TokenOwnership",
          "name": "",
          "type": "tuple"
        }
      ],
      "stateMutability": "view",
      "type": "function"
    },
    {
      "inputs": [
        {
          "internalType": "address",
          "name": "owner",
          "type": "address"
        },
        {
          "internalType": "address",
          "name": "operator",
          "type": "address"
        }
      ],
      "name": "isApprovedForAll",
      "outputs": [
        {
          "internalType": "bool",
          "name": "",
          "type": "bool"
        }
      ],
      "stateMutability": "view",
      "type": "function"
    },
    {
      "inputs": [
        {
          "internalType": "address",
          "name": "",
          "type": "address"
        }
      ],
      "name": "memberHasMinted",
      "outputs": [
        {
          "internalType": "bool",
          "name": "",
          "type": "bool"
        }
      ],
      "stateMutability": "view",
      "type": "function"
    },
    {
      "inputs": [],
      "name": "name",
      "outputs": [
        {
          "internalType": "string",
          "name": "",
          "type": "string"
        }
      ],
      "stateMutability": "view",
      "type": "function"
    },
    {
      "inputs": [
        {
          "internalType": "address",
          "name": "owner",
          "type": "address"
        }
      ],
      "name": "numberMinted",
      "outputs": [
        {
          "internalType": "uint256",
          "name": "",
          "type": "uint256"
        }
      ],
      "stateMutability": "view",
      "type": "function"
    },
    {
      "inputs": [],
      "name": "owner",
      "outputs": [
        {
          "internalType": "address",
          "name": "",
          "type": "address"
        }
      ],
      "stateMutability": "view",
      "type": "function"
    },
    {
      "inputs": [
        {
          "internalType": "uint256",
          "name": "tokenId",
          "type": "uint256"
        }
      ],
      "name": "ownerOf",
      "outputs": [
        {
          "internalType": "address",
          "name": "",
          "type": "address"
        }
      ],
      "stateMutability": "view",
      "type": "function"
    },
    {
      "inputs": [
        {
          "internalType": "bytes32[]",
          "name": "_merkleProof",
          "type": "bytes32[]"
        },
        {
          "internalType": "uint64",
          "name": "quantity",
          "type": "uint64"
        }
      ],
      "name": "presaleMint",
      "outputs": [],
      "stateMutability": "payable",
      "type": "function"
    },
    {
      "inputs": [],
      "name": "presaleProps",
      "outputs": [
        {
          "internalType": "bytes32",
          "name": "merkleRoot",
          "type": "bytes32"
        },
        {
          "internalType": "uint32",
          "name": "startTime",
          "type": "uint32"
        },
        {
          "internalType": "uint64",
          "name": "price",
          "type": "uint64"
        },
        {
          "internalType": "uint64",
          "name": "maxPerAddress",
          "type": "uint64"
        }
      ],
      "stateMutability": "view",
      "type": "function"
    },
    {
      "inputs": [
        {
          "internalType": "uint64",
          "name": "quantity",
          "type": "uint64"
        }
      ],
      "name": "publicSaleMint",
      "outputs": [],
      "stateMutability": "payable",
      "type": "function"
    },
    {
      "inputs": [],
      "name": "publicSaleProps",
      "outputs": [
        {
          "internalType": "uint32",
          "name": "startTime",
          "type": "uint32"
        },
        {
          "internalType": "uint64",
          "name": "price",
          "type": "uint64"
        },
        {
          "internalType": "uint64",
          "name": "maxPerAddress",
          "type": "uint64"
        }
      ],
      "stateMutability": "view",
      "type": "function"
    },
    {
      "inputs": [],
      "name": "renounceOwnership",
      "outputs": [],
      "stateMutability": "nonpayable",
      "type": "function"
    },
    {
      "inputs": [],
      "name": "reserveCount",
      "outputs": [
        {
          "internalType": "uint256",
          "name": "",
          "type": "uint256"
        }
      ],
      "stateMutability": "view",
      "type": "function"
    },
    {
      "inputs": [],
      "name": "revealed",
      "outputs": [
        {
          "internalType": "bool",
          "name": "",
          "type": "bool"
        }
      ],
      "stateMutability": "view",
      "type": "function"
    },
    {
      "inputs": [
        {
          "internalType": "address",
          "name": "from",
          "type": "address"
        },
        {
          "internalType": "address",
          "name": "to",
          "type": "address"
        },
        {
          "internalType": "uint256",
          "name": "tokenId",
          "type": "uint256"
        }
      ],
      "name": "safeTransferFrom",
      "outputs": [],
      "stateMutability": "nonpayable",
      "type": "function"
    },
    {
      "inputs": [
        {
          "internalType": "address",
          "name": "from",
          "type": "address"
        },
        {
          "internalType": "address",
          "name": "to",
          "type": "address"
        },
        {
          "internalType": "uint256",
          "name": "tokenId",
          "type": "uint256"
        },
        {
          "internalType": "bytes",
          "name": "_data",
          "type": "bytes"
        }
      ],
      "name": "safeTransferFrom",
      "outputs": [],
      "stateMutability": "nonpayable",
      "type": "function"
    },
    {
      "inputs": [
        {
          "internalType": "address",
          "name": "operator",
          "type": "address"
        },
        {
          "internalType": "bool",
          "name": "approved",
          "type": "bool"
        }
      ],
      "name": "setApprovalForAll",
      "outputs": [],
      "stateMutability": "nonpayable",
      "type": "function"
    },
    {
      "inputs": [
        {
          "internalType": "string",
          "name": "baseURI",
          "type": "string"
        }
      ],
      "name": "setBaseURI",
      "outputs": [],
      "stateMutability": "nonpayable",
      "type": "function"
    },
    {
      "inputs": [
        {
          "internalType": "bytes32",
          "name": "root",
          "type": "bytes32"
        }
      ],
      "name": "setMerkleRoot",
      "outputs": [],
      "stateMutability": "nonpayable",
      "type": "function"
    },
    {
      "inputs": [
        {
          "internalType": "bytes32",
          "name": "merkleRoot",
          "type": "bytes32"
        },
        {
          "internalType": "uint32",
          "name": "presaleStartTime",
          "type": "uint32"
        },
        {
          "internalType": "uint64",
          "name": "presalePriceWei",
          "type": "uint64"
        },
        {
          "internalType": "uint64",
          "name": "maxPerAddressDuringPresaleMint",
          "type": "uint64"
        }
      ],
      "name": "setPresaleProps",
      "outputs": [],
      "stateMutability": "nonpayable",
      "type": "function"
    },
    {
      "inputs": [
        {
          "internalType": "bytes4",
          "name": "interfaceId",
          "type": "bytes4"
        }
      ],
      "name": "supportsInterface",
      "outputs": [
        {
          "internalType": "bool",
          "name": "",
          "type": "bool"
        }
      ],
      "stateMutability": "view",
      "type": "function"
    },
    {
      "inputs": [],
      "name": "symbol",
      "outputs": [
        {
          "internalType": "string",
          "name": "",
          "type": "string"
        }
      ],
      "stateMutability": "view",
      "type": "function"
    },
    {
      "inputs": [
        {
          "internalType": "address",
          "name": "",
          "type": "address"
        }
      ],
      "name": "teamMember",
      "outputs": [
        {
          "internalType": "bool",
          "name": "",
          "type": "bool"
        }
      ],
      "stateMutability": "view",
      "type": "function"
    },
    {
      "inputs": [],
      "name": "teamMint",
      "outputs": [],
      "stateMutability": "nonpayable",
      "type": "function"
    },
    {
      "inputs": [
        {
          "internalType": "uint256",
          "name": "_tokenId",
          "type": "uint256"
        }
      ],
      "name": "tokenURI",
      "outputs": [
        {
          "internalType": "string",
          "name": "",
          "type": "string"
        }
      ],
      "stateMutability": "view",
      "type": "function"
    },
    {
      "inputs": [],
      "name": "totalSupply",
      "outputs": [
        {
          "internalType": "uint256",
          "name": "",
          "type": "uint256"
        }
      ],
      "stateMutability": "view",
      "type": "function"
    },
    {
      "inputs": [
        {
          "internalType": "address",
          "name": "from",
          "type": "address"
        },
        {
          "internalType": "address",
          "name": "to",
          "type": "address"
        },
        {
          "internalType": "uint256",
          "name": "tokenId",
          "type": "uint256"
        }
      ],
      "name": "transferFrom",
      "outputs": [],
      "stateMutability": "nonpayable",
      "type": "function"
    },
    {
      "inputs": [
        {
          "internalType": "address",
          "name": "newOwner",
          "type": "address"
        }
      ],
      "name": "transferOwnership",
      "outputs": [],
      "stateMutability": "nonpayable",
      "type": "function"
    },
    {
      "inputs": [],
      "name": "whitelistCount",
      "outputs": [
        {
          "internalType": "uint256",
          "name": "",
          "type": "uint256"
        }
      ],
      "stateMutability": "view",
      "type": "function"
    },
    {
      "inputs": [],
      "name": "withdrawMoney",
      "outputs": [],
      "stateMutability": "nonpayable",
      "type": "function"
    }
  ],
  "bytecode": {
    "object": "0x60806040523480156200001157600080fd5b506040805180820182526007815266223932b0b6b2b960c91b60208083019182528351808501909452600384526244524d60e81b9084015281519192916200005c91600291620000e1565b50805162000072906003906020840190620000e1565b5050600080555062000084336200008f565b6001600955620001c4565b600880546001600160a01b038381166001600160a01b0319831681179093556040519116919082907f8be0079c531659141344cd1fd0a4f28419497f9722a3daafe3b4186f6b6457e090600090a35050565b828054620000ef9062000187565b90600052602060002090601f0160209004810192826200011357600085556200015e565b82601f106200012e57805160ff19168380011785556200015e565b828001600101855582156200015e579182015b828111156200015e57825182559160200191906001019062000141565b506200016c92915062000170565b5090565b5b808211156200016c576000815560010162000171565b600181811c908216806200019c57607f821691505b60208210811415620001be57634e487b7160e01b600052602260045260246000fd5b50919050565b61248f80620001d46000396000f3fe60806040526004361061023b5760003560e01c80637cb647591161012e578063c3dc6ecf116100ab578063e985e9c51161006f578063e985e9c5146106b7578063f2624b5d14610700578063f2fde38b14610716578063f734eb9f14610736578063ff4c61301461079c57600080fd5b8063c3dc6ecf14610639578063c87b56dd1461064e578063d598135e1461066e578063d63dd70114610684578063dc33e6811461069757600080fd5b8063a08a81d7116100f2578063a08a81d7146105b9578063a22cb465146105cf578063ac446002146105ef578063b88d4fde14610604578063ba7a86b81461062457600080fd5b80637cb64759146104da57806386700b59146104fa5780638da5cb5b1461051a5780639231ab2a1461053857806395d89b41146105a457600080fd5b80633eb2b5ad116101bc57806363518e761161018057806363518e76146104405780636352211e1461047057806370a0823114610490578063715018a6146104b057806375296b86146104c557600080fd5b80633eb2b5ad146103b357806342842e0e146103d357806347fa1e75146103f3578063518302271461040657806355f804b31461042057600080fd5b806316317c211161020357806316317c211461031157806318160ddd1461033557806323b872dd1461034e578063303fe55d1461036e578063383bbce51461039e57600080fd5b806301ffc9a71461024057806306fdde0314610275578063081812fc14610297578063095ea7b3146102cf57806309f396e0146102f1575b600080fd5b34801561024c57600080fd5b5061026061025b366004611d58565b61080e565b60405190151581526020015b60405180910390f35b34801561028157600080fd5b5061028a610860565b60405161026c9190611dcd565b3480156102a357600080fd5b506102b76102b2366004611de0565b6108f2565b6040516001600160a01b03909116815260200161026c565b3480156102db57600080fd5b506102ef6102ea366004611e15565b610936565b005b3480156102fd57600080fd5b506102ef61030c366004611e6a565b6109d6565b34801561031d57600080fd5b50610327600b5481565b60405190815260200161026c565b34801561034157600080fd5b5060015460005403610327565b34801561035a57600080fd5b506102ef610369366004611ead565b610a38565b34801561037a57600080fd5b50610260610389366004611ee9565b60116020526000908152604090205460ff1681565b3480156103aa57600080fd5b50610327600581565b3480156103bf57600080fd5b506102ef6103ce366004611ee9565b610bc9565b3480156103df57600080fd5b506102ef6103ee366004611ead565b610bf5565b6102ef610401366004611f04565b610c15565b34801561041257600080fd5b50600d546102609060ff1681565b34801561042c57600080fd5b506102ef61043b366004611f7e565b610ec2565b34801561044c57600080fd5b5061026061045b366004611ee9565b60126020526000908152604090205460ff1681565b34801561047c57600080fd5b506102b761048b366004611de0565b610ed6565b34801561049c57600080fd5b506103276104ab366004611ee9565b610ee1565b3480156104bc57600080fd5b506102ef610f2f565b3480156104d157600080fd5b50610327606481565b3480156104e657600080fd5b506102ef6104f5366004611de0565b610f43565b34801561050657600080fd5b506102ef610515366004611fef565b610f50565b34801561052657600080fd5b506008546001600160a01b03166102b7565b34801561054457600080fd5b50610558610553366004611de0565b610fae565b60405161026c919081516001600160a01b031681526020808301516001600160401b03169082015260408083015115159082015260609182015162ffffff169181019190915260800190565b3480156105b057600080fd5b5061028a610fdb565b3480156105c557600080fd5b5061032761271081565b3480156105db57600080fd5b506102ef6105ea36600461203c565b610fea565b3480156105fb57600080fd5b506102ef611080565b34801561061057600080fd5b506102ef61061f36600461208e565b611160565b34801561063057600080fd5b506102ef6111aa565b34801561064557600080fd5b50610327600381565b34801561065a57600080fd5b5061028a610669366004611de0565b611312565b34801561067a57600080fd5b5061032761138881565b6102ef610692366004612169565b6113b3565b3480156106a357600080fd5b506103276106b2366004611ee9565b61158e565b3480156106c357600080fd5b506102606106d2366004612184565b6001600160a01b03918216600090815260076020908152604080832093909416825291909152205460ff1690565b34801561070c57600080fd5b50610327600a5481565b34801561072257600080fd5b506102ef610731366004611ee9565b6115b8565b34801561074257600080fd5b506010546107709063ffffffff8116906001600160401b036401000000008204811691600160601b90041683565b6040805163ffffffff90941684526001600160401b03928316602085015291169082015260600161026c565b3480156107a857600080fd5b50600e54600f546107da919063ffffffff8116906001600160401b036401000000008204811691600160601b90041684565b6040805194855263ffffffff90931660208501526001600160401b039182169284019290925216606082015260800161026c565b60006301ffc9a760e01b6001600160e01b03198316148061083f57506380ac58cd60e01b6001600160e01b03198316145b8061085a5750635b5e139f60e01b6001600160e01b03198316145b92915050565b60606002805461086f906121b7565b80601f016020809104026020016040519081016040528092919081815260200182805461089b906121b7565b80156108e85780601f106108bd576101008083540402835291602001916108e8565b820191906000526020600020905b8154815290600101906020018083116108cb57829003601f168201915b5050505050905090565b60006108fd82611631565b61091a576040516333d1c03960e21b815260040160405180910390fd5b506000908152600660205260409020546001600160a01b031690565b600061094182610ed6565b9050336001600160a01b0382161461097a5761095d81336106d2565b61097a576040516367d9dca160e11b815260040160405180910390fd5b60008281526006602052604080822080546001600160a01b0319166001600160a01b0387811691821790925591518593918516917f8c5be1e5ebec7d5bd14f71427d1e84f3dd0314c0f7b2291e5b200ac8c7c3b92591a4505050565b6109de611658565b600f805463ffffffff191690556010805463ffffffff949094166001600160601b0319909416939093176401000000006001600160401b03938416021767ffffffffffffffff60601b1916600160601b9190921602179055565b6000610a43826116b2565b9050836001600160a01b0316816001600160a01b031614610a765760405162a1148160e81b815260040160405180910390fd5b60008281526006602052604090208054338082146001600160a01b03881690911417610ac357610aa686336106d2565b610ac357604051632ce44b5f60e11b815260040160405180910390fd5b6001600160a01b038516610aea57604051633a954ecd60e21b815260040160405180910390fd5b8015610af557600082555b6001600160a01b038681166000908152600560205260408082208054600019019055918716808252919020805460010190554260a01b17600160e11b17600085815260046020526040902055600160e11b8316610b805760018401600081815260046020526040902054610b7e576000548114610b7e5760008181526004602052604090208490555b505b83856001600160a01b0316876001600160a01b03167fddf252ad1be2c89b69c2b068fc378daa952ba7f163c4a11628f55a4df523b3ef60405160405180910390a4505050505050565b610bd1611658565b6001600160a01b03166000908152601160205260409020805460ff19166001179055565b610c1083838360405180602001604052806000815250611160565b505050565b60026009541415610c415760405162461bcd60e51b8152600401610c38906121f2565b60405180910390fd5b6002600955600f546001600160401b03640100000000820481169163ffffffff811691600160601b9091041682610cba5760405162461bcd60e51b815260206004820181905260248201527f77686974656c6973742073616c6520686173206e6f7420626567756e207965746044820152606401610c38565b8115801590610cc95750814210155b610d155760405162461bcd60e51b815260206004820152601960248201527f70726573616c6520686173206e6f7420626567756e20796574000000000000006044820152606401610c38565b612710846001600160401b0316610d2f6001546000540390565b610d39919061223f565b1115610d575760405162461bcd60e51b8152600401610c3890612257565b6040516001600160601b03193360601b166020820152600090603401604051602081830303815290604052805190602001209050610dcc87878080602002602001604051908101604052809392919081815260200183836020028082843760009201919091525050600e54915084905061171a565b610e185760405162461bcd60e51b815260206004820152601760248201527f696e76616c69642077686974656c6973742070726f6f660000000000000000006044820152606401610c38565b816001600160401b0316856001600160401b0316610e353361158e565b610e3f919061223f565b1115610e865760405162461bcd60e51b815260206004820152601660248201527563616e206e6f74206d696e742074686973206d616e7960501b6044820152606401610c38565b610ea1610e9c6001600160401b03871686612283565b611730565b610eb433866001600160401b0316611819565b505060016009555050505050565b610eca611658565b610c10600c8383611ca9565b600061085a826116b2565b60006001600160a01b038216610f0a576040516323d3ad8160e21b815260040160405180910390fd5b506001600160a01b03166000908152600560205260409020546001600160401b031690565b610f37611658565b610f416000611837565b565b610f4b611658565b600e55565b610f58611658565b600e93909355600f805463ffffffff939093166001600160601b0319909316929092176401000000006001600160401b03928316021767ffffffffffffffff60601b1916600160601b9190931602919091179055565b60408051608081018252600080825260208201819052918101829052606081019190915261085a82611889565b60606003805461086f906121b7565b6001600160a01b0382163314156110145760405163b06307db60e01b815260040160405180910390fd5b3360008181526007602090815260408083206001600160a01b03871680855290835292819020805460ff191686151590811790915590519081529192917f17307eab39ab6107e8899845ad3d59bd9653f200f220920489ca2b5937696c31910160405180910390a35050565b611088611658565b600260095414156110ab5760405162461bcd60e51b8152600401610c38906121f2565b60026009554760006110c56008546001600160a01b031690565b6001600160a01b03168260405160006040518083038185875af1925050503d806000811461110f576040519150601f19603f3d011682016040523d82523d6000602084013e611114565b606091505b50509050806111575760405162461bcd60e51b815260206004820152600f60248201526e1d1c985b9cd9995c8819985a5b1959608a1b6044820152606401610c38565b50506001600955565b61116b848484610a38565b6001600160a01b0383163b156111a45761118784848484611900565b6111a4576040516368d2bf6b60e11b815260040160405180910390fd5b50505050565b600260095414156111cd5760405162461bcd60e51b8152600401610c38906121f2565b60026009553360009081526011602052604090205460ff1615156001146112365760405162461bcd60e51b815260206004820152601860248201527f6e6f742061206d656d626572206f6e20746865207465616d00000000000000006044820152606401610c38565b3360009081526012602052604090205460ff16156112ac5760405162461bcd60e51b815260206004820152602d60248201527f7465616d4d696e743a20796f7520686176652070726576696f75736c79206d6960448201526c1b9d1959081e5bdd5c88139195609a1b6064820152608401610c38565b61271060056112be6001546000540390565b6112c8919061223f565b11156112e65760405162461bcd60e51b8152600401610c3890612257565b336000818152601260205260409020805460ff1916600117905561130b906005611819565b6001600955565b606061131d82611631565b6113815760405162461bcd60e51b815260206004820152602f60248201527f4552433732314d657461646174613a2055524920717565727920666f72206e6f60448201526e3732bc34b9ba32b73a103a37b5b2b760891b6064820152608401610c38565b600c61138c836119e9565b60405160200161139d9291906122be565b6040516020818303038152906040529050919050565b600260095414156113d65760405162461bcd60e51b8152600401610c38906121f2565b60026009556010546001600160401b03640100000000820481169163ffffffff811691600160601b909104168261144f5760405162461bcd60e51b815260206004820152601d60248201527f7075626c69632073616c6520686173206e6f7420626567756e207965740000006044820152606401610c38565b811580159061145e5750814210155b6114aa5760405162461bcd60e51b815260206004820152601d60248201527f7075626c69632073616c6520686173206e6f7420626567756e207965740000006044820152606401610c38565b612710846001600160401b03166114c46001546000540390565b6114ce919061223f565b11156114ec5760405162461bcd60e51b8152600401610c3890612257565b806001600160401b0316846001600160401b03166115093361158e565b611513919061223f565b111561155a5760405162461bcd60e51b815260206004820152601660248201527563616e206e6f74206d696e742074686973206d616e7960501b6044820152606401610c38565b611570610e9c6001600160401b03861685612283565b61158333856001600160401b0316611819565b505060016009555050565b6001600160a01b038116600090815260056020526040808220546001600160401b03911c1661085a565b6115c0611658565b6001600160a01b0381166116255760405162461bcd60e51b815260206004820152602660248201527f4f776e61626c653a206e6577206f776e657220697320746865207a65726f206160448201526564647265737360d01b6064820152608401610c38565b61162e81611837565b50565b600080548210801561085a575050600090815260046020526040902054600160e01b161590565b6008546001600160a01b03163314610f415760405162461bcd60e51b815260206004820181905260248201527f4f776e61626c653a2063616c6c6572206973206e6f7420746865206f776e65726044820152606401610c38565b60008160005481101561170157600081815260046020526040902054600160e01b81166116ff575b806116f85750600019016000818152600460205260409020546116da565b9392505050565b505b604051636f96cda160e11b815260040160405180910390fd5b6000826117278584611ae6565b14949350505050565b803410156117785760405162461bcd60e51b81526020600482015260156024820152740dccacac840e8de40e6cadcc840dadee4ca408aa89605b1b6044820152606401610c38565b8034111561162e57600061178c8234612379565b604051909150600090339083908381818185875af1925050503d80600081146117d1576040519150601f19603f3d011682016040523d82523d6000602084013e6117d6565b606091505b5050905080610c105760405162461bcd60e51b815260206004820152600f60248201526e1d1c985b9cd9995c8819985a5b1959608a1b6044820152606401610c38565b611833828260405180602001604052806000815250611b33565b5050565b600880546001600160a01b038381166001600160a01b0319831681179093556040519116919082907f8be0079c531659141344cd1fd0a4f28419497f9722a3daafe3b4186f6b6457e090600090a35050565b60408051608081018252600080825260208201819052918101829052606081019190915261085a6118b9836116b2565b604080516080810182526001600160a01b038316815260a083901c6001600160401b03166020820152600160e01b831615159181019190915260e89190911c606082015290565b604051630a85bd0160e11b81526000906001600160a01b0385169063150b7a0290611935903390899088908890600401612390565b6020604051808303816000875af1925050508015611970575060408051601f3d908101601f1916820190925261196d918101906123cd565b60015b6119cb573d80801561199e576040519150601f19603f3d011682016040523d82523d6000602084013e6119a3565b606091505b5080516119c3576040516368d2bf6b60e11b815260040160405180910390fd5b805181602001fd5b6001600160e01b031916630a85bd0160e11b1490505b949350505050565b606081611a0d5750506040805180820190915260018152600360fc1b602082015290565b8160005b8115611a375780611a21816123ea565b9150611a309050600a8361241b565b9150611a11565b6000816001600160401b03811115611a5157611a51612078565b6040519080825280601f01601f191660200182016040528015611a7b576020820181803683370190505b5090505b84156119e157611a90600183612379565b9150611a9d600a8661242f565b611aa890603061223f565b60f81b818381518110611abd57611abd612443565b60200101906001600160f81b031916908160001a905350611adf600a8661241b565b9450611a7f565b600081815b8451811015611b2b57611b1782868381518110611b0a57611b0a612443565b6020026020010151611ba0565b915080611b23816123ea565b915050611aeb565b509392505050565b611b3d8383611bcc565b6001600160a01b0383163b15610c10576000548281035b611b676000868380600101945086611900565b611b84576040516368d2bf6b60e11b815260040160405180910390fd5b818110611b54578160005414611b9957600080fd5b5050505050565b6000818310611bbc5760008281526020849052604090206116f8565b5060009182526020526040902090565b6000546001600160a01b038316611bf557604051622e076360e81b815260040160405180910390fd5b81611c135760405163b562e8dd60e01b815260040160405180910390fd5b6001600160a01b038316600081815260056020526040902080546801000000000000000185020190554260a01b6001841460e11b1717600082815260046020526040902055808281015b6040516001830192906001600160a01b038716906000907fddf252ad1be2c89b69c2b068fc378daa952ba7f163c4a11628f55a4df523b3ef908290a4808210611c5d5760005550505050565b828054611cb5906121b7565b90600052602060002090601f016020900481019282611cd75760008555611d1d565b82601f10611cf05782800160ff19823516178555611d1d565b82800160010185558215611d1d579182015b82811115611d1d578235825591602001919060010190611d02565b50611d29929150611d2d565b5090565b5b80821115611d295760008155600101611d2e565b6001600160e01b03198116811461162e57600080fd5b600060208284031215611d6a57600080fd5b81356116f881611d42565b60005b83811015611d90578181015183820152602001611d78565b838111156111a45750506000910152565b60008151808452611db9816020860160208601611d75565b601f01601f19169290920160200192915050565b6020815260006116f86020830184611da1565b600060208284031215611df257600080fd5b5035919050565b80356001600160a01b0381168114611e1057600080fd5b919050565b60008060408385031215611e2857600080fd5b611e3183611df9565b946020939093013593505050565b803563ffffffff81168114611e1057600080fd5b80356001600160401b0381168114611e1057600080fd5b600080600060608486031215611e7f57600080fd5b611e8884611e3f565b9250611e9660208501611e53565b9150611ea460408501611e53565b90509250925092565b600080600060608486031215611ec257600080fd5b611ecb84611df9565b9250611ed960208501611df9565b9150604084013590509250925092565b600060208284031215611efb57600080fd5b6116f882611df9565b600080600060408486031215611f1957600080fd5b83356001600160401b0380821115611f3057600080fd5b818601915086601f830112611f4457600080fd5b813581811115611f5357600080fd5b8760208260051b8501011115611f6857600080fd5b602092830195509350611ea49186019050611e53565b60008060208385031215611f9157600080fd5b82356001600160401b0380821115611fa857600080fd5b818501915085601f830112611fbc57600080fd5b813581811115611fcb57600080fd5b866020828501011115611fdd57600080fd5b60209290920196919550909350505050565b6000806000806080858703121561200557600080fd5b8435935061201560208601611e3f565b925061202360408601611e53565b915061203160608601611e53565b905092959194509250565b6000806040838503121561204f57600080fd5b61205883611df9565b91506020830135801515811461206d57600080fd5b809150509250929050565b634e487b7160e01b600052604160045260246000fd5b600080600080608085870312156120a457600080fd5b6120ad85611df9565b93506120bb60208601611df9565b92506040850135915060608501356001600160401b03808211156120de57600080fd5b818701915087601f8301126120f257600080fd5b81358181111561210457612104612078565b604051601f8201601f19908116603f0116810190838211818310171561212c5761212c612078565b816040528281528a602084870101111561214557600080fd5b82602086016020830137600060208483010152809550505050505092959194509250565b60006020828403121561217b57600080fd5b6116f882611e53565b6000806040838503121561219757600080fd5b6121a083611df9565b91506121ae60208401611df9565b90509250929050565b600181811c908216806121cb57607f821691505b602082108114156121ec57634e487b7160e01b600052602260045260246000fd5b50919050565b6020808252601f908201527f5265656e7472616e637947756172643a207265656e7472616e742063616c6c00604082015260600190565b634e487b7160e01b600052601160045260246000fd5b6000821982111561225257612252612229565b500190565b60208082526012908201527172656163686564206d617820737570706c7960701b604082015260600190565b600081600019048311821515161561229d5761229d612229565b500290565b600081516122b4818560208601611d75565b9290920192915050565b600080845481600182811c9150808316806122da57607f831692505b60208084108214156122fa57634e487b7160e01b86526022600452602486fd5b81801561230e576001811461231f5761234c565b60ff1986168952848901965061234c565b60008b81526020902060005b868110156123445781548b82015290850190830161232b565b505084890196505b50505050505061237061235f82866122a2565b64173539b7b760d91b815260050190565b95945050505050565b60008282101561238b5761238b612229565b500390565b6001600160a01b03858116825284166020820152604081018390526080606082018190526000906123c390830184611da1565b9695505050505050565b6000602082840312156123df57600080fd5b81516116f881611d42565b60006000198214156123fe576123fe612229565b5060010190565b634e487b7160e01b600052601260045260246000fd5b60008261242a5761242a612405565b500490565b60008261243e5761243e612405565b500690565b634e487b7160e01b600052603260045260246000fdfea2646970667358221220ad59e8262405235fc42d7b49342150c86fb8d49402ecee3dceca9df32d889d5264736f6c634300080a0033",
    "linkReferences": {}
  },
  "methodIdentifiers": {
    "AMOUNTFORTEAM()": "383bbce5",
    "MAX_SALE_QUANTITY()": "c3dc6ecf",
    "PRESALE_MAX()": "d598135e",
    "TEAM_MAX()": "75296b86",
    "TOTAL_MAX()": "a08a81d7",
    "addTeamMember(address)": "3eb2b5ad",
    "approve(address,uint256)": "095ea7b3",
    "balanceOf(address)": "70a08231",
    "endPreSaleAndSetupPublicSale(uint32,uint64,uint64)": "09f396e0",
    "getApproved(uint256)": "081812fc",
    "getOwnershipData(uint256)": "9231ab2a",
    "isApprovedForAll(address,address)": "e985e9c5",
    "memberHasMinted(address)": "63518e76",
    "name()": "06fdde03",
    "numberMinted(address)": "dc33e681",
    "owner()": "8da5cb5b",
    "ownerOf(uint256)": "6352211e",
    "presaleMint(bytes32[],uint64)": "47fa1e75",
    "presaleProps()": "ff4c6130",
    "publicSaleMint(uint64)": "d63dd701",
    "publicSaleProps()": "f734eb9f",
    "renounceOwnership()": "715018a6",
    "reserveCount()": "16317c21",
    "revealed()": "51830227",
    "safeTransferFrom(address,address,uint256)": "42842e0e",
    "safeTransferFrom(address,address,uint256,bytes)": "b88d4fde",
    "setApprovalForAll(address,bool)": "a22cb465",
    "setBaseURI(string)": "55f804b3",
    "setMerkleRoot(bytes32)": "7cb64759",
    "setPresaleProps(bytes32,uint32,uint64,uint64)": "86700b59",
    "supportsInterface(bytes4)": "01ffc9a7",
    "symbol()": "95d89b41",
    "teamMember(address)": "303fe55d",
    "teamMint()": "ba7a86b8",
    "tokenURI(uint256)": "c87b56dd",
    "totalSupply()": "18160ddd",
    "transferFrom(address,address,uint256)": "23b872dd",
    "transferOwnership(address)": "f2fde38b",
    "whitelistCount()": "f2624b5d",
    "withdrawMoney()": "ac446002"
  },
  "id": 13
}