{
  "abi": [
    {
      "inputs": [],
      "stateMutability": "nonpayable",
      "type": "constructor"
    },
    {
      "inputs": [],
      "name": "ApprovalCallerNotOwnerNorApproved",
      "type": "error"
    },
    {
      "inputs": [],
      "name": "ApprovalQueryForNonexistentToken",
      "type": "error"
    },
    {
      "inputs": [],
      "name": "ApprovalToCurrentOwner",
      "type": "error"
    },
    {
      "inputs": [],
      "name": "ApproveToCaller",
      "type": "error"
    },
    {
      "inputs": [],
      "name": "BalanceQueryForZeroAddress",
      "type": "error"
    },
    {
      "inputs": [],
      "name": "MintToZeroAddress",
      "type": "error"
    },
    {
      "inputs": [],
      "name": "MintZeroQuantity",
      "type": "error"
    },
    {
      "inputs": [],
      "name": "OwnerQueryForNonexistentToken",
      "type": "error"
    },
    {
      "inputs": [],
      "name": "TransferCallerNotOwnerNorApproved",
      "type": "error"
    },
    {
      "inputs": [],
      "name": "TransferFromIncorrectOwner",
      "type": "error"
    },
    {
      "inputs": [],
      "name": "TransferToNonERC721ReceiverImplementer",
      "type": "error"
    },
    {
      "inputs": [],
      "name": "TransferToZeroAddress",
      "type": "error"
    },
    {
      "inputs": [],
      "name": "URIQueryForNonexistentToken",
      "type": "error"
    },
    {
      "anonymous": false,
      "inputs": [
        {
          "indexed": true,
          "internalType": "address",
          "name": "owner",
          "type": "address"
        },
        {
          "indexed": true,
          "internalType": "address",
          "name": "approved",
          "type": "address"
        },
        {
          "indexed": true,
          "internalType": "uint256",
          "name": "tokenId",
          "type": "uint256"
        }
      ],
      "name": "Approval",
      "type": "event"
    },
    {
      "anonymous": false,
      "inputs": [
        {
          "indexed": true,
          "internalType": "address",
          "name": "owner",
          "type": "address"
        },
        {
          "indexed": true,
          "internalType": "address",
          "name": "operator",
          "type": "address"
        },
        {
          "indexed": false,
          "internalType": "bool",
          "name": "approved",
          "type": "bool"
        }
      ],
      "name": "ApprovalForAll",
      "type": "event"
    },
    {
      "anonymous": false,
      "inputs": [
        {
          "indexed": true,
          "internalType": "address",
          "name": "previousOwner",
          "type": "address"
        },
        {
          "indexed": true,
          "internalType": "address",
          "name": "newOwner",
          "type": "address"
        }
      ],
      "name": "OwnershipTransferred",
      "type": "event"
    },
    {
      "anonymous": false,
      "inputs": [
        {
          "indexed": false,
          "internalType": "address",
          "name": "account",
          "type": "address"
        }
      ],
      "name": "Paused",
      "type": "event"
    },
    {
      "anonymous": false,
      "inputs": [
        {
          "indexed": true,
          "internalType": "address",
          "name": "from",
          "type": "address"
        },
        {
          "indexed": true,
          "internalType": "address",
          "name": "to",
          "type": "address"
        },
        {
          "indexed": true,
          "internalType": "uint256",
          "name": "tokenId",
          "type": "uint256"
        }
      ],
      "name": "Transfer",
      "type": "event"
    },
    {
      "anonymous": false,
      "inputs": [
        {
          "indexed": false,
          "internalType": "address",
          "name": "account",
          "type": "address"
        }
      ],
      "name": "Unpaused",
      "type": "event"
    },
    {
      "inputs": [],
      "name": "PRESALEQTY",
      "outputs": [
        {
          "internalType": "uint256",
          "name": "",
          "type": "uint256"
        }
      ],
      "stateMutability": "view",
      "type": "function"
    },
    {
      "inputs": [
        {
          "internalType": "address",
          "name": "to",
          "type": "address"
        },
        {
          "internalType": "uint256",
          "name": "tokenId",
          "type": "uint256"
        }
      ],
      "name": "approve",
      "outputs": [],
      "stateMutability": "nonpayable",
      "type": "function"
    },
    {
      "inputs": [
        {
          "internalType": "address",
          "name": "owner",
          "type": "address"
        }
      ],
      "name": "balanceOf",
      "outputs": [
        {
          "internalType": "uint256",
          "name": "",
          "type": "uint256"
        }
      ],
      "stateMutability": "view",
      "type": "function"
    },
    {
      "inputs": [
        {
          "internalType": "uint32",
          "name": "publicSaleStartTime",
          "type": "uint32"
        },
        {
          "internalType": "uint64",
          "name": "publicSalePriceWei",
          "type": "uint64"
        },
        {
          "internalType": "uint64",
          "name": "maxPerAddressDuringPublicSaleMint",
          "type": "uint64"
        }
      ],
      "name": "endpRESaleAndSetupPublicSale",
      "outputs": [],
      "stateMutability": "nonpayable",
      "type": "function"
    },
    {
      "inputs": [
        {
          "internalType": "uint256",
          "name": "tokenId",
          "type": "uint256"
        }
      ],
      "name": "getApproved",
      "outputs": [
        {
          "internalType": "address",
          "name": "",
          "type": "address"
        }
      ],
      "stateMutability": "view",
      "type": "function"
    },
    {
      "inputs": [
        {
          "internalType": "address",
          "name": "owner",
          "type": "address"
        },
        {
          "internalType": "address",
          "name": "operator",
          "type": "address"
        }
      ],
      "name": "isApprovedForAll",
      "outputs": [
        {
          "internalType": "bool",
          "name": "",
          "type": "bool"
        }
      ],
      "stateMutability": "view",
      "type": "function"
    },
    {
      "inputs": [],
      "name": "name",
      "outputs": [
        {
          "internalType": "string",
          "name": "",
          "type": "string"
        }
      ],
      "stateMutability": "view",
      "type": "function"
    },
    {
      "inputs": [],
      "name": "owner",
      "outputs": [
        {
          "internalType": "address",
          "name": "",
          "type": "address"
        }
      ],
      "stateMutability": "view",
      "type": "function"
    },
    {
      "inputs": [
        {
          "internalType": "uint256",
          "name": "tokenId",
          "type": "uint256"
        }
      ],
      "name": "ownerOf",
      "outputs": [
        {
          "internalType": "address",
          "name": "",
          "type": "address"
        }
      ],
      "stateMutability": "view",
      "type": "function"
    },
    {
      "inputs": [],
      "name": "pause",
      "outputs": [],
      "stateMutability": "nonpayable",
      "type": "function"
    },
    {
      "inputs": [],
      "name": "paused",
      "outputs": [
        {
          "internalType": "bool",
          "name": "",
          "type": "bool"
        }
      ],
      "stateMutability": "view",
      "type": "function"
    },
    {
      "inputs": [
        {
          "internalType": "bytes32[]",
          "name": "_merkleProof",
          "type": "bytes32[]"
        },
        {
          "internalType": "uint64",
          "name": "quantity",
          "type": "uint64"
        }
      ],
      "name": "presaleMint",
      "outputs": [],
      "stateMutability": "payable",
      "type": "function"
    },
    {
      "inputs": [],
      "name": "presaleProps",
      "outputs": [
        {
          "internalType": "bytes32",
          "name": "merkleRoot",
          "type": "bytes32"
        },
        {
          "internalType": "uint32",
          "name": "startTime",
          "type": "uint32"
        },
        {
          "internalType": "uint64",
          "name": "price",
          "type": "uint64"
        },
        {
          "internalType": "uint64",
          "name": "maxPerAddress",
          "type": "uint64"
        }
      ],
      "stateMutability": "view",
      "type": "function"
    },
    {
      "inputs": [
        {
          "internalType": "uint64",
          "name": "quantity",
          "type": "uint64"
        }
      ],
      "name": "publicSaleMint",
      "outputs": [],
      "stateMutability": "payable",
      "type": "function"
    },
    {
      "inputs": [],
      "name": "publicSaleProps",
      "outputs": [
        {
          "internalType": "uint32",
          "name": "startTime",
          "type": "uint32"
        },
        {
          "internalType": "uint64",
          "name": "price",
          "type": "uint64"
        },
        {
          "internalType": "uint64",
          "name": "maxPerAddress",
          "type": "uint64"
        }
      ],
      "stateMutability": "view",
      "type": "function"
    },
    {
      "inputs": [],
      "name": "renounceOwnership",
      "outputs": [],
      "stateMutability": "nonpayable",
      "type": "function"
    },
    {
      "inputs": [
        {
          "internalType": "address",
          "name": "from",
          "type": "address"
        },
        {
          "internalType": "address",
          "name": "to",
          "type": "address"
        },
        {
          "internalType": "uint256",
          "name": "tokenId",
          "type": "uint256"
        }
      ],
      "name": "safeTransferFrom",
      "outputs": [],
      "stateMutability": "nonpayable",
      "type": "function"
    },
    {
      "inputs": [
        {
          "internalType": "address",
          "name": "from",
          "type": "address"
        },
        {
          "internalType": "address",
          "name": "to",
          "type": "address"
        },
        {
          "internalType": "uint256",
          "name": "tokenId",
          "type": "uint256"
        },
        {
          "internalType": "bytes",
          "name": "_data",
          "type": "bytes"
        }
      ],
      "name": "safeTransferFrom",
      "outputs": [],
      "stateMutability": "nonpayable",
      "type": "function"
    },
    {
      "inputs": [
        {
          "internalType": "address",
          "name": "operator",
          "type": "address"
        },
        {
          "internalType": "bool",
          "name": "approved",
          "type": "bool"
        }
      ],
      "name": "setApprovalForAll",
      "outputs": [],
      "stateMutability": "nonpayable",
      "type": "function"
    },
    {
      "inputs": [
        {
          "internalType": "bytes32",
          "name": "root",
          "type": "bytes32"
        }
      ],
      "name": "setMerkleRoot",
      "outputs": [],
      "stateMutability": "nonpayable",
      "type": "function"
    },
    {
      "inputs": [
        {
          "internalType": "bytes32",
          "name": "merkleRoot",
          "type": "bytes32"
        },
        {
          "internalType": "uint32",
          "name": "presaleStartTime",
          "type": "uint32"
        },
        {
          "internalType": "uint64",
          "name": "presalePriceWei",
          "type": "uint64"
        },
        {
          "internalType": "uint64",
          "name": "maxPerAddressDuringPresaleMint",
          "type": "uint64"
        }
      ],
      "name": "setPresaleProps",
      "outputs": [],
      "stateMutability": "nonpayable",
      "type": "function"
    },
    {
      "inputs": [
        {
          "internalType": "bytes32",
          "name": "merkleRoot",
          "type": "bytes32"
        },
        {
          "internalType": "uint64",
          "name": "maxPerAddressForEachTeamMember",
          "type": "uint64"
        }
      ],
      "name": "setTeamMintProps",
      "outputs": [],
      "stateMutability": "nonpayable",
      "type": "function"
    },
    {
      "inputs": [
        {
          "internalType": "bytes4",
          "name": "interfaceId",
          "type": "bytes4"
        }
      ],
      "name": "supportsInterface",
      "outputs": [
        {
          "internalType": "bool",
          "name": "",
          "type": "bool"
        }
      ],
      "stateMutability": "view",
      "type": "function"
    },
    {
      "inputs": [],
      "name": "symbol",
      "outputs": [
        {
          "internalType": "string",
          "name": "",
          "type": "string"
        }
      ],
      "stateMutability": "view",
      "type": "function"
    },
    {
      "inputs": [
        {
          "internalType": "bytes32[]",
          "name": "_merkleProof",
          "type": "bytes32[]"
        },
        {
          "internalType": "uint64",
          "name": "quantity",
          "type": "uint64"
        }
      ],
      "name": "teamMint",
      "outputs": [],
      "stateMutability": "nonpayable",
      "type": "function"
    },
    {
      "inputs": [],
      "name": "teamMintProps",
      "outputs": [
        {
          "internalType": "bytes32",
          "name": "merkleRoot",
          "type": "bytes32"
        },
        {
          "internalType": "uint64",
          "name": "totalMintQty",
          "type": "uint64"
        },
        {
          "internalType": "uint64",
          "name": "maxPerAddress",
          "type": "uint64"
        }
      ],
      "stateMutability": "view",
      "type": "function"
    },
    {
      "inputs": [],
      "name": "teamQtyMinted",
      "outputs": [
        {
          "internalType": "uint256",
          "name": "",
          "type": "uint256"
        }
      ],
      "stateMutability": "view",
      "type": "function"
    },
    {
      "inputs": [
        {
          "internalType": "uint256",
          "name": "tokenId",
          "type": "uint256"
        }
      ],
      "name": "tokenURI",
      "outputs": [
        {
          "internalType": "string",
          "name": "",
          "type": "string"
        }
      ],
      "stateMutability": "view",
      "type": "function"
    },
    {
      "inputs": [],
      "name": "totalSupply",
      "outputs": [
        {
          "internalType": "uint256",
          "name": "",
          "type": "uint256"
        }
      ],
      "stateMutability": "view",
      "type": "function"
    },
    {
      "inputs": [
        {
          "internalType": "address",
          "name": "from",
          "type": "address"
        },
        {
          "internalType": "address",
          "name": "to",
          "type": "address"
        },
        {
          "internalType": "uint256",
          "name": "tokenId",
          "type": "uint256"
        }
      ],
      "name": "transferFrom",
      "outputs": [],
      "stateMutability": "nonpayable",
      "type": "function"
    },
    {
      "inputs": [
        {
          "internalType": "address",
          "name": "newOwner",
          "type": "address"
        }
      ],
      "name": "transferOwnership",
      "outputs": [],
      "stateMutability": "nonpayable",
      "type": "function"
    },
    {
      "inputs": [],
      "name": "unPause",
      "outputs": [],
      "stateMutability": "nonpayable",
      "type": "function"
    }
  ],
  "bytecode": {
    "object": "0x60806040523480156200001157600080fd5b506040805180820182526007815266223932b0b6b2b960c91b60208083019182528351808501909452600384526244524d60e81b9084015281519192916200005c91600291620000ee565b50805162000072906003906020840190620000ee565b5050600080555062000084336200009c565b6008805460ff60a01b191690556001600955620001d1565b600880546001600160a01b038381166001600160a01b0319831681179093556040519116919082907f8be0079c531659141344cd1fd0a4f28419497f9722a3daafe3b4186f6b6457e090600090a35050565b828054620000fc9062000194565b90600052602060002090601f0160209004810192826200012057600085556200016b565b82601f106200013b57805160ff19168380011785556200016b565b828001600101855582156200016b579182015b828111156200016b5782518255916020019190600101906200014e565b50620001799291506200017d565b5090565b5b808211156200017957600081556001016200017e565b600181811c90821680620001a957607f821691505b60208210811415620001cb57634e487b7160e01b600052602260045260246000fd5b50919050565b61226b80620001e16000396000f3fe6080604052600436106101e35760003560e01c806386700b5911610102578063d63dd70111610095578063f43a8bb211610064578063f43a8bb2146105b1578063f734eb9f146105c7578063f7b188a51461062d578063ff4c61301461064257600080fd5b8063d63dd70114610515578063e836e8e614610528578063e985e9c514610548578063f2fde38b1461059157600080fd5b8063a22cb465116100d1578063a22cb46514610495578063a64b6c38146104b5578063b88d4fde146104d5578063c87b56dd146104f557600080fd5b806386700b59146103ee5780638da5cb5b1461040e57806392288f4c1461042c57806395d89b411461048057600080fd5b806347fa1e751161017a57806370a082311161014957806370a0823114610384578063715018a6146103a45780637cb64759146103b95780638456cb59146103d957600080fd5b806347fa1e75146103125780635c975abb146103255780636352211e146103445780636a7aa3cf1461036457600080fd5b806318160ddd116101b657806318160ddd1461029957806323b872dd146102bc57806342842e0e146102dc57806344f9029d146102fc57600080fd5b806301ffc9a7146101e857806306fdde031461021d578063081812fc1461023f578063095ea7b314610277575b600080fd5b3480156101f457600080fd5b50610208610203366004611be1565b6106b4565b60405190151581526020015b60405180910390f35b34801561022957600080fd5b50610232610706565b6040516102149190611c56565b34801561024b57600080fd5b5061025f61025a366004611c69565b610798565b6040516001600160a01b039091168152602001610214565b34801561028357600080fd5b50610297610292366004611c9e565b6107dc565b005b3480156102a557600080fd5b50600154600054035b604051908152602001610214565b3480156102c857600080fd5b506102976102d7366004611cc8565b6108af565b3480156102e857600080fd5b506102976102f7366004611cc8565b6108bf565b34801561030857600080fd5b506102ae600a5481565b610297610320366004611d1b565b6108da565b34801561033157600080fd5b50600854600160a01b900460ff16610208565b34801561035057600080fd5b5061025f61035f366004611c69565b610bc2565b34801561037057600080fd5b5061029761037f366004611db2565b610bcd565b34801561039057600080fd5b506102ae61039f366004611dec565b610c51565b3480156103b057600080fd5b50610297610c96565b3480156103c557600080fd5b506102976103d4366004611c69565b610ccc565b3480156103e557600080fd5b50610297610cfb565b3480156103fa57600080fd5b50610297610409366004611e07565b610d2d565b34801561041a57600080fd5b506008546001600160a01b031661025f565b34801561043857600080fd5b50600e54600f5461045b91906001600160401b0380821691600160401b90041683565b604080519384526001600160401b039283166020850152911690820152606001610214565b34801561048c57600080fd5b50610232610dad565b3480156104a157600080fd5b506102976104b0366004611e54565b610dbc565b3480156104c157600080fd5b506102976104d0366004611e90565b610e52565b3480156104e157600080fd5b506102976104f0366004611ed2565b610eb4565b34801561050157600080fd5b50610232610510366004611c69565b610efe565b610297610523366004611fad565b610f90565b34801561053457600080fd5b50610297610543366004611d1b565b61116e565b34801561055457600080fd5b50610208610563366004611fc8565b6001600160a01b03918216600090815260076020908152604080832093909416825291909152205460ff1690565b34801561059d57600080fd5b506102976105ac366004611dec565b611379565b3480156105bd57600080fd5b506102ae61138881565b3480156105d357600080fd5b50600d546106019063ffffffff8116906001600160401b036401000000008204811691600160601b90041683565b6040805163ffffffff90941684526001600160401b039283166020850152911690820152606001610214565b34801561063957600080fd5b50610297611414565b34801561064e57600080fd5b50600b54600c54610680919063ffffffff8116906001600160401b036401000000008204811691600160601b90041684565b6040805194855263ffffffff90931660208501526001600160401b0391821692840192909252166060820152608001610214565b60006301ffc9a760e01b6001600160e01b0319831614806106e557506380ac58cd60e01b6001600160e01b03198316145b806107005750635b5e139f60e01b6001600160e01b03198316145b92915050565b60606002805461071590611ff2565b80601f016020809104026020016040519081016040528092919081815260200182805461074190611ff2565b801561078e5780601f106107635761010080835404028352916020019161078e565b820191906000526020600020905b81548152906001019060200180831161077157829003601f168201915b5050505050905090565b60006107a382611446565b6107c0576040516333d1c03960e21b815260040160405180910390fd5b506000908152600660205260409020546001600160a01b031690565b60006107e78261146d565b9050806001600160a01b0316836001600160a01b0316141561081c5760405163250fdee360e21b815260040160405180910390fd5b336001600160a01b03821614610853576108368133610563565b610853576040516367d9dca160e11b815260040160405180910390fd5b60008281526006602052604080822080546001600160a01b0319166001600160a01b0387811691821790925591518593918516917f8c5be1e5ebec7d5bd14f71427d1e84f3dd0314c0f7b2291e5b200ac8c7c3b92591a4505050565b6108ba8383836114ce565b505050565b6108ba83838360405180602001604052806000815250610eb4565b600260095414156109065760405162461bcd60e51b81526004016108fd9061202d565b60405180910390fd5b6002600955600c546001600160401b03640100000000820481169163ffffffff811691600160601b909104168261097f5760405162461bcd60e51b815260206004820181905260248201527f77686974656c6973742073616c6520686173206e6f7420626567756e2079657460448201526064016108fd565b811580159061098e5750814210155b6109da5760405162461bcd60e51b815260206004820152601960248201527f70726573616c6520686173206e6f7420626567756e207965740000000000000060448201526064016108fd565b612710846001600160401b03166109f46001546000540390565b6109fe919061207a565b1115610a1c5760405162461bcd60e51b81526004016108fd90612092565b6040516001600160601b03193360601b166020820152600090603401604051602081830303815290604052805190602001209050610a9187878080602002602001604051908101604052809392919081815260200183836020028082843760009201919091525050600b54915084905061167e565b610add5760405162461bcd60e51b815260206004820152601760248201527f696e76616c69642077686974656c6973742070726f6f6600000000000000000060448201526064016108fd565b6001600160401b03821685610b0b335b6001600160a01b031660009081526005602052604090205460c01c90565b610b1591906120be565b6001600160401b03161115610b3c5760405162461bcd60e51b81526004016108fd906120e9565b610b4f33866001600160401b0316611694565b610b993386610b5d33610aed565b610b6791906120be565b6001600160a01b03909116600090815260056020526040902080546001600160c01b031660c09290921b919091179055565b610bb4610baf6001600160401b03871686612119565b6116b2565b505060016009555050505050565b60006107008261146d565b6008546001600160a01b03163314610bf75760405162461bcd60e51b81526004016108fd90612138565b600c805463ffffffff19169055600d805463ffffffff949094166001600160601b0319909416939093176401000000006001600160401b03938416021767ffffffffffffffff60601b1916600160601b9190921602179055565b600081610c71576040516323d3ad8160e21b815260040160405180910390fd5b506001600160a01b03166000908152600560205260409020546001600160401b031690565b6008546001600160a01b03163314610cc05760405162461bcd60e51b81526004016108fd90612138565b610cca6000611738565b565b6008546001600160a01b03163314610cf65760405162461bcd60e51b81526004016108fd90612138565b600b55565b6008546001600160a01b03163314610d255760405162461bcd60e51b81526004016108fd90612138565b610cca61178a565b6008546001600160a01b03163314610d575760405162461bcd60e51b81526004016108fd90612138565b600b93909355600c805463ffffffff939093166001600160601b0319909316929092176401000000006001600160401b03928316021767ffffffffffffffff60601b1916600160601b9190931602919091179055565b60606003805461071590611ff2565b6001600160a01b038216331415610de65760405163b06307db60e01b815260040160405180910390fd5b3360008181526007602090815260408083206001600160a01b03871680855290835292819020805460ff191686151590811790915590519081529192917f17307eab39ab6107e8899845ad3d59bd9653f200f220920489ca2b5937696c31910160405180910390a35050565b6008546001600160a01b03163314610e7c5760405162461bcd60e51b81526004016108fd90612138565b600e91909155600f80546001600160401b03909216600160401b026fffffffffffffffff000000000000000019909216919091179055565b610ebf8484846114ce565b6001600160a01b0383163b15610ef857610edb8484848461182f565b610ef8576040516368d2bf6b60e11b815260040160405180910390fd5b50505050565b6060610f0982611446565b610f2657604051630a14c4b560e41b815260040160405180910390fd5b6000610f3d60408051602081019091526000815290565b9050805160001415610f5e5760405180602001604052806000815250610f89565b80610f6884611917565b604051602001610f7992919061216d565b6040516020818303038152906040525b9392505050565b60026009541415610fb35760405162461bcd60e51b81526004016108fd9061202d565b6002600955600d546001600160401b03640100000000820481169163ffffffff811691600160601b909104168261102c5760405162461bcd60e51b815260206004820152601d60248201527f7075626c69632073616c6520686173206e6f7420626567756e2079657400000060448201526064016108fd565b811580159061103b5750814210155b6110875760405162461bcd60e51b815260206004820152601d60248201527f7075626c69632073616c6520686173206e6f7420626567756e2079657400000060448201526064016108fd565b612710846001600160401b03166110a16001546000540390565b6110ab919061207a565b11156110c95760405162461bcd60e51b81526004016108fd90612092565b806001600160401b0316846001600160401b03166110e7610aed3390565b3360009081526005602052604090819020546001600160401b0392831692911c166111129190612193565b61111c919061207a565b111561113a5760405162461bcd60e51b81526004016108fd906120e9565b61114d33856001600160401b0316611694565b611163610baf6001600160401b03861685612119565b505060016009555050565b600260095414156111915760405162461bcd60e51b81526004016108fd9061202d565b6002600955600f54600160401b90046001600160401b0316806112045760405162461bcd60e51b815260206004820152602560248201527f4f776e65722069732079657420746f20736574207175616e7469747920666f72604482015264206465767360d81b60648201526084016108fd565b612710826001600160401b031661121e6001546000540390565b611228919061207a565b11156112465760405162461bcd60e51b81526004016108fd90612092565b6040516001600160601b03193360601b1660208201526000906034016040516020818303038152906040528051906020012090506112bb85858080602002602001604051908101604052809392919081815260200183836020028082843760009201919091525050600e54915084905061167e565b6113075760405162461bcd60e51b815260206004820152601860248201527f696e76616c6964205465616d4d656d6265722070726f6f66000000000000000060448201526064016108fd565b6001600160401b0382168361131b33610aed565b61132591906120be565b6001600160401b0316111561134c5760405162461bcd60e51b81526004016108fd906120e9565b61135f33846001600160401b0316611694565b61136d3384610b5d33610aed565b50506001600955505050565b6008546001600160a01b031633146113a35760405162461bcd60e51b81526004016108fd90612138565b6001600160a01b0381166114085760405162461bcd60e51b815260206004820152602660248201527f4f776e61626c653a206e6577206f776e657220697320746865207a65726f206160448201526564647265737360d01b60648201526084016108fd565b61141181611738565b50565b6008546001600160a01b0316331461143e5760405162461bcd60e51b81526004016108fd90612138565b610cca611966565b6000805482108015610700575050600090815260046020526040902054600160e01b161590565b6000816000548110156114b557600081815260046020526040902054600160e01b81166114b3575b80610f89575060001901600081815260046020526040902054611495565b505b604051636f96cda160e11b815260040160405180910390fd5b60006114d98261146d565b9050836001600160a01b0316816001600160a01b03161461150c5760405162a1148160e81b815260040160405180910390fd5b6000828152600660205260408120546001600160a01b039081169190861633148061153c575061153c8633610563565b8061154f57506001600160a01b03821633145b90508061156f57604051632ce44b5f60e11b815260040160405180910390fd5b8461158d57604051633a954ecd60e21b815260040160405180910390fd5b81156115b057600084815260066020526040902080546001600160a01b03191690555b6001600160a01b03868116600090815260056020908152604080832080546000190190559288168252828220805460010190558682526004905220600160e11b4260a01b87178117909155831661163557600184016000818152600460205260409020546116335760005481146116335760008181526004602052604090208490555b505b83856001600160a01b0316876001600160a01b03167fddf252ad1be2c89b69c2b068fc378daa952ba7f163c4a11628f55a4df523b3ef60405160405180910390a4505050505050565b60008261168b85846119ea565b14949350505050565b6116ae828260405180602001604052806000815250611a37565b5050565b803410156116fa5760405162461bcd60e51b81526020600482015260156024820152740dccacac840e8de40e6cadcc840dadee4ca408aa89605b1b60448201526064016108fd565b8034111561141157336108fc6117108334612193565b6040518115909202916000818181858888f193505050501580156116ae573d6000803e3d6000fd5b600880546001600160a01b038381166001600160a01b0319831681179093556040519116919082907f8be0079c531659141344cd1fd0a4f28419497f9722a3daafe3b4186f6b6457e090600090a35050565b600854600160a01b900460ff16156117d75760405162461bcd60e51b815260206004820152601060248201526f14185d5cd8589b194e881c185d5cd95960821b60448201526064016108fd565b6008805460ff60a01b1916600160a01b1790557f62e78cea01bee320cd4e420270b5ea74000d11b0c9f74754ebdbfc544b05a2586118123390565b6040516001600160a01b03909116815260200160405180910390a1565b604051630a85bd0160e11b81526000906001600160a01b0385169063150b7a02906118649033908990889088906004016121aa565b6020604051808303816000875af192505050801561189f575060408051601f3d908101601f1916820190925261189c918101906121e7565b60015b6118fa573d8080156118cd576040519150601f19603f3d011682016040523d82523d6000602084013e6118d2565b606091505b5080516118f2576040516368d2bf6b60e11b815260040160405180910390fd5b805181602001fd5b6001600160e01b031916630a85bd0160e11b149050949350505050565b604080516080810191829052607f0190826030600a8206018353600a90045b801561195457600183039250600a81066030018353600a9004611936565b50819003601f19909101908152919050565b600854600160a01b900460ff166119b65760405162461bcd60e51b815260206004820152601460248201527314185d5cd8589b194e881b9bdd081c185d5cd95960621b60448201526064016108fd565b6008805460ff60a01b191690557f5db9ee0a495bf2e6ff9c91a7834c1ba4fdd244a5e8aa4e537bd38aeae4b073aa33611812565b600081815b8451811015611a2f57611a1b82868381518110611a0e57611a0e612204565b6020026020010151611b9f565b915080611a278161221a565b9150506119ef565b509392505050565b60005483611a5757604051622e076360e81b815260040160405180910390fd5b82611a755760405163b562e8dd60e01b815260040160405180910390fd5b6001600160a01b03841660008181526005602090815260408083208054680100000000000000018902019055848352600490915290204260a01b86176001861460e11b1790558190818501903b15611b4a575b60405182906001600160a01b038816906000907fddf252ad1be2c89b69c2b068fc378daa952ba7f163c4a11628f55a4df523b3ef908290a4611b13600087848060010195508761182f565b611b30576040516368d2bf6b60e11b815260040160405180910390fd5b808210611ac8578260005414611b4557600080fd5b611b8f565b5b6040516001830192906001600160a01b038816906000907fddf252ad1be2c89b69c2b068fc378daa952ba7f163c4a11628f55a4df523b3ef908290a4808210611b4b575b506000908155610ef89085838684565b6000818310611bbb576000828152602084905260409020610f89565b5060009182526020526040902090565b6001600160e01b03198116811461141157600080fd5b600060208284031215611bf357600080fd5b8135610f8981611bcb565b60005b83811015611c19578181015183820152602001611c01565b83811115610ef85750506000910152565b60008151808452611c42816020860160208601611bfe565b601f01601f19169290920160200192915050565b602081526000610f896020830184611c2a565b600060208284031215611c7b57600080fd5b5035919050565b80356001600160a01b0381168114611c9957600080fd5b919050565b60008060408385031215611cb157600080fd5b611cba83611c82565b946020939093013593505050565b600080600060608486031215611cdd57600080fd5b611ce684611c82565b9250611cf460208501611c82565b9150604084013590509250925092565b80356001600160401b0381168114611c9957600080fd5b600080600060408486031215611d3057600080fd5b83356001600160401b0380821115611d4757600080fd5b818601915086601f830112611d5b57600080fd5b813581811115611d6a57600080fd5b8760208260051b8501011115611d7f57600080fd5b602092830195509350611d959186019050611d04565b90509250925092565b803563ffffffff81168114611c9957600080fd5b600080600060608486031215611dc757600080fd5b611dd084611d9e565b9250611dde60208501611d04565b9150611d9560408501611d04565b600060208284031215611dfe57600080fd5b610f8982611c82565b60008060008060808587031215611e1d57600080fd5b84359350611e2d60208601611d9e565b9250611e3b60408601611d04565b9150611e4960608601611d04565b905092959194509250565b60008060408385031215611e6757600080fd5b611e7083611c82565b915060208301358015158114611e8557600080fd5b809150509250929050565b60008060408385031215611ea357600080fd5b82359150611eb360208401611d04565b90509250929050565b634e487b7160e01b600052604160045260246000fd5b60008060008060808587031215611ee857600080fd5b611ef185611c82565b9350611eff60208601611c82565b92506040850135915060608501356001600160401b0380821115611f2257600080fd5b818701915087601f830112611f3657600080fd5b813581811115611f4857611f48611ebc565b604051601f8201601f19908116603f01168101908382118183101715611f7057611f70611ebc565b816040528281528a6020848701011115611f8957600080fd5b82602086016020830137600060208483010152809550505050505092959194509250565b600060208284031215611fbf57600080fd5b610f8982611d04565b60008060408385031215611fdb57600080fd5b611fe483611c82565b9150611eb360208401611c82565b600181811c9082168061200657607f821691505b6020821081141561202757634e487b7160e01b600052602260045260246000fd5b50919050565b6020808252601f908201527f5265656e7472616e637947756172643a207265656e7472616e742063616c6c00604082015260600190565b634e487b7160e01b600052601160045260246000fd5b6000821982111561208d5761208d612064565b500190565b60208082526012908201527172656163686564206d617820737570706c7960701b604082015260600190565b60006001600160401b038083168185168083038211156120e0576120e0612064565b01949350505050565b60208082526016908201527563616e206e6f74206d696e742074686973206d616e7960501b604082015260600190565b600081600019048311821515161561213357612133612064565b500290565b6020808252818101527f4f776e61626c653a2063616c6c6572206973206e6f7420746865206f776e6572604082015260600190565b6000835161217f818460208801611bfe565b8351908301906120e0818360208801611bfe565b6000828210156121a5576121a5612064565b500390565b6001600160a01b03858116825284166020820152604081018390526080606082018190526000906121dd90830184611c2a565b9695505050505050565b6000602082840312156121f957600080fd5b8151610f8981611bcb565b634e487b7160e01b600052603260045260246000fd5b600060001982141561222e5761222e612064565b506001019056fea26469706673582212208f09379ea458ba1204378f867307e7644e27f18da2782d3e4f842fcfe271dfe964736f6c634300080a0033",
    "linkReferences": {}
  }
}