{
  "abi": [
    {
      "inputs": [],
      "stateMutability": "nonpayable",
      "type": "constructor"
    },
    {
      "inputs": [],
      "name": "ApprovalCallerNotOwnerNorApproved",
      "type": "error"
    },
    {
      "inputs": [],
      "name": "ApprovalQueryForNonexistentToken",
      "type": "error"
    },
    {
      "inputs": [],
      "name": "ApproveToCaller",
      "type": "error"
    },
    {
      "inputs": [],
      "name": "BalanceQueryForZeroAddress",
      "type": "error"
    },
    {
      "inputs": [],
      "name": "MintERC2309QuantityExceedsLimit",
      "type": "error"
    },
    {
      "inputs": [],
      "name": "MintToZeroAddress",
      "type": "error"
    },
    {
      "inputs": [],
      "name": "MintZeroQuantity",
      "type": "error"
    },
    {
      "inputs": [],
      "name": "OwnerQueryForNonexistentToken",
      "type": "error"
    },
    {
      "inputs": [],
      "name": "OwnershipNotInitializedForExtraData",
      "type": "error"
    },
    {
      "inputs": [],
      "name": "TransferCallerNotOwnerNorApproved",
      "type": "error"
    },
    {
      "inputs": [],
      "name": "TransferFromIncorrectOwner",
      "type": "error"
    },
    {
      "inputs": [],
      "name": "TransferToNonERC721ReceiverImplementer",
      "type": "error"
    },
    {
      "inputs": [],
      "name": "TransferToZeroAddress",
      "type": "error"
    },
    {
      "inputs": [],
      "name": "URIQueryForNonexistentToken",
      "type": "error"
    },
    {
      "anonymous": false,
      "inputs": [
        {
          "indexed": true,
          "internalType": "address",
          "name": "owner",
          "type": "address"
        },
        {
          "indexed": true,
          "internalType": "address",
          "name": "approved",
          "type": "address"
        },
        {
          "indexed": true,
          "internalType": "uint256",
          "name": "tokenId",
          "type": "uint256"
        }
      ],
      "name": "Approval",
      "type": "event"
    },
    {
      "anonymous": false,
      "inputs": [
        {
          "indexed": true,
          "internalType": "address",
          "name": "owner",
          "type": "address"
        },
        {
          "indexed": true,
          "internalType": "address",
          "name": "operator",
          "type": "address"
        },
        {
          "indexed": false,
          "internalType": "bool",
          "name": "approved",
          "type": "bool"
        }
      ],
      "name": "ApprovalForAll",
      "type": "event"
    },
    {
      "anonymous": false,
      "inputs": [
        {
          "indexed": true,
          "internalType": "uint256",
          "name": "fromTokenId",
          "type": "uint256"
        },
        {
          "indexed": false,
          "internalType": "uint256",
          "name": "toTokenId",
          "type": "uint256"
        },
        {
          "indexed": true,
          "internalType": "address",
          "name": "from",
          "type": "address"
        },
        {
          "indexed": true,
          "internalType": "address",
          "name": "to",
          "type": "address"
        }
      ],
      "name": "ConsecutiveTransfer",
      "type": "event"
    },
    {
      "anonymous": false,
      "inputs": [
        {
          "indexed": true,
          "internalType": "address",
          "name": "previousOwner",
          "type": "address"
        },
        {
          "indexed": true,
          "internalType": "address",
          "name": "newOwner",
          "type": "address"
        }
      ],
      "name": "OwnershipTransferred",
      "type": "event"
    },
    {
      "anonymous": false,
      "inputs": [
        {
          "indexed": false,
          "internalType": "address",
          "name": "account",
          "type": "address"
        }
      ],
      "name": "Paused",
      "type": "event"
    },
    {
      "anonymous": false,
      "inputs": [
        {
          "indexed": true,
          "internalType": "address",
          "name": "from",
          "type": "address"
        },
        {
          "indexed": true,
          "internalType": "address",
          "name": "to",
          "type": "address"
        },
        {
          "indexed": true,
          "internalType": "uint256",
          "name": "tokenId",
          "type": "uint256"
        }
      ],
      "name": "Transfer",
      "type": "event"
    },
    {
      "anonymous": false,
      "inputs": [
        {
          "indexed": false,
          "internalType": "address",
          "name": "account",
          "type": "address"
        }
      ],
      "name": "Unpaused",
      "type": "event"
    },
    {
      "inputs": [],
      "name": "PRESALEQTY",
      "outputs": [
        {
          "internalType": "uint256",
          "name": "",
          "type": "uint256"
        }
      ],
      "stateMutability": "view",
      "type": "function"
    },
    {
      "inputs": [
        {
          "internalType": "address",
          "name": "to",
          "type": "address"
        },
        {
          "internalType": "uint256",
          "name": "tokenId",
          "type": "uint256"
        }
      ],
      "name": "approve",
      "outputs": [],
      "stateMutability": "nonpayable",
      "type": "function"
    },
    {
      "inputs": [
        {
          "internalType": "address",
          "name": "owner",
          "type": "address"
        }
      ],
      "name": "balanceOf",
      "outputs": [
        {
          "internalType": "uint256",
          "name": "",
          "type": "uint256"
        }
      ],
      "stateMutability": "view",
      "type": "function"
    },
    {
      "inputs": [
        {
          "internalType": "uint32",
          "name": "publicSaleStartTime",
          "type": "uint32"
        },
        {
          "internalType": "uint64",
          "name": "publicSalePriceWei",
          "type": "uint64"
        },
        {
          "internalType": "uint64",
          "name": "maxPerAddressDuringPublicSaleMint",
          "type": "uint64"
        }
      ],
      "name": "endpRESaleAndSetupPublicSale",
      "outputs": [],
      "stateMutability": "nonpayable",
      "type": "function"
    },
    {
      "inputs": [
        {
          "internalType": "uint256",
          "name": "tokenId",
          "type": "uint256"
        }
      ],
      "name": "getApproved",
      "outputs": [
        {
          "internalType": "address",
          "name": "",
          "type": "address"
        }
      ],
      "stateMutability": "view",
      "type": "function"
    },
    {
      "inputs": [
        {
          "internalType": "address",
          "name": "owner",
          "type": "address"
        },
        {
          "internalType": "address",
          "name": "operator",
          "type": "address"
        }
      ],
      "name": "isApprovedForAll",
      "outputs": [
        {
          "internalType": "bool",
          "name": "",
          "type": "bool"
        }
      ],
      "stateMutability": "view",
      "type": "function"
    },
    {
      "inputs": [],
      "name": "name",
      "outputs": [
        {
          "internalType": "string",
          "name": "",
          "type": "string"
        }
      ],
      "stateMutability": "view",
      "type": "function"
    },
    {
      "inputs": [],
      "name": "owner",
      "outputs": [
        {
          "internalType": "address",
          "name": "",
          "type": "address"
        }
      ],
      "stateMutability": "view",
      "type": "function"
    },
    {
      "inputs": [
        {
          "internalType": "uint256",
          "name": "tokenId",
          "type": "uint256"
        }
      ],
      "name": "ownerOf",
      "outputs": [
        {
          "internalType": "address",
          "name": "",
          "type": "address"
        }
      ],
      "stateMutability": "view",
      "type": "function"
    },
    {
      "inputs": [],
      "name": "pause",
      "outputs": [],
      "stateMutability": "nonpayable",
      "type": "function"
    },
    {
      "inputs": [],
      "name": "paused",
      "outputs": [
        {
          "internalType": "bool",
          "name": "",
          "type": "bool"
        }
      ],
      "stateMutability": "view",
      "type": "function"
    },
    {
      "inputs": [
        {
          "internalType": "bytes32[]",
          "name": "_merkleProof",
          "type": "bytes32[]"
        },
        {
          "internalType": "uint64",
          "name": "quantity",
          "type": "uint64"
        }
      ],
      "name": "presaleMint",
      "outputs": [],
      "stateMutability": "payable",
      "type": "function"
    },
    {
      "inputs": [],
      "name": "presaleProps",
      "outputs": [
        {
          "internalType": "bytes32",
          "name": "merkleRoot",
          "type": "bytes32"
        },
        {
          "internalType": "uint32",
          "name": "startTime",
          "type": "uint32"
        },
        {
          "internalType": "uint64",
          "name": "price",
          "type": "uint64"
        },
        {
          "internalType": "uint64",
          "name": "maxPerAddress",
          "type": "uint64"
        }
      ],
      "stateMutability": "view",
      "type": "function"
    },
    {
      "inputs": [
        {
          "internalType": "uint64",
          "name": "quantity",
          "type": "uint64"
        }
      ],
      "name": "publicSaleMint",
      "outputs": [],
      "stateMutability": "payable",
      "type": "function"
    },
    {
      "inputs": [],
      "name": "publicSaleProps",
      "outputs": [
        {
          "internalType": "uint32",
          "name": "startTime",
          "type": "uint32"
        },
        {
          "internalType": "uint64",
          "name": "price",
          "type": "uint64"
        },
        {
          "internalType": "uint64",
          "name": "maxPerAddress",
          "type": "uint64"
        }
      ],
      "stateMutability": "view",
      "type": "function"
    },
    {
      "inputs": [],
      "name": "renounceOwnership",
      "outputs": [],
      "stateMutability": "nonpayable",
      "type": "function"
    },
    {
      "inputs": [
        {
          "internalType": "address",
          "name": "from",
          "type": "address"
        },
        {
          "internalType": "address",
          "name": "to",
          "type": "address"
        },
        {
          "internalType": "uint256",
          "name": "tokenId",
          "type": "uint256"
        }
      ],
      "name": "safeTransferFrom",
      "outputs": [],
      "stateMutability": "nonpayable",
      "type": "function"
    },
    {
      "inputs": [
        {
          "internalType": "address",
          "name": "from",
          "type": "address"
        },
        {
          "internalType": "address",
          "name": "to",
          "type": "address"
        },
        {
          "internalType": "uint256",
          "name": "tokenId",
          "type": "uint256"
        },
        {
          "internalType": "bytes",
          "name": "_data",
          "type": "bytes"
        }
      ],
      "name": "safeTransferFrom",
      "outputs": [],
      "stateMutability": "nonpayable",
      "type": "function"
    },
    {
      "inputs": [
        {
          "internalType": "address",
          "name": "operator",
          "type": "address"
        },
        {
          "internalType": "bool",
          "name": "approved",
          "type": "bool"
        }
      ],
      "name": "setApprovalForAll",
      "outputs": [],
      "stateMutability": "nonpayable",
      "type": "function"
    },
    {
      "inputs": [
        {
          "internalType": "string",
          "name": "baseURI",
          "type": "string"
        }
      ],
      "name": "setBaseURI",
      "outputs": [],
      "stateMutability": "nonpayable",
      "type": "function"
    },
    {
      "inputs": [
        {
          "internalType": "bytes32",
          "name": "root",
          "type": "bytes32"
        }
      ],
      "name": "setMerkleRoot",
      "outputs": [],
      "stateMutability": "nonpayable",
      "type": "function"
    },
    {
      "inputs": [
        {
          "internalType": "bytes32",
          "name": "merkleRoot",
          "type": "bytes32"
        },
        {
          "internalType": "uint32",
          "name": "presaleStartTime",
          "type": "uint32"
        },
        {
          "internalType": "uint64",
          "name": "presalePriceWei",
          "type": "uint64"
        },
        {
          "internalType": "uint64",
          "name": "maxPerAddressDuringPresaleMint",
          "type": "uint64"
        }
      ],
      "name": "setPresaleProps",
      "outputs": [],
      "stateMutability": "nonpayable",
      "type": "function"
    },
    {
      "inputs": [
        {
          "internalType": "bytes32",
          "name": "merkleRoot",
          "type": "bytes32"
        },
        {
          "internalType": "uint64",
          "name": "maxPerAddressForEachTeamMember",
          "type": "uint64"
        }
      ],
      "name": "setTeamMintProps",
      "outputs": [],
      "stateMutability": "nonpayable",
      "type": "function"
    },
    {
      "inputs": [
        {
          "internalType": "bytes4",
          "name": "interfaceId",
          "type": "bytes4"
        }
      ],
      "name": "supportsInterface",
      "outputs": [
        {
          "internalType": "bool",
          "name": "",
          "type": "bool"
        }
      ],
      "stateMutability": "view",
      "type": "function"
    },
    {
      "inputs": [],
      "name": "symbol",
      "outputs": [
        {
          "internalType": "string",
          "name": "",
          "type": "string"
        }
      ],
      "stateMutability": "view",
      "type": "function"
    },
    {
      "inputs": [
        {
          "internalType": "bytes32[]",
          "name": "_merkleProof",
          "type": "bytes32[]"
        },
        {
          "internalType": "uint64",
          "name": "quantity",
          "type": "uint64"
        }
      ],
      "name": "teamMint",
      "outputs": [],
      "stateMutability": "nonpayable",
      "type": "function"
    },
    {
      "inputs": [],
      "name": "teamMintProps",
      "outputs": [
        {
          "internalType": "bytes32",
          "name": "merkleRoot",
          "type": "bytes32"
        },
        {
          "internalType": "uint64",
          "name": "totalMintQty",
          "type": "uint64"
        },
        {
          "internalType": "uint64",
          "name": "maxPerAddress",
          "type": "uint64"
        }
      ],
      "stateMutability": "view",
      "type": "function"
    },
    {
      "inputs": [],
      "name": "teamQtyMinted",
      "outputs": [
        {
          "internalType": "uint256",
          "name": "",
          "type": "uint256"
        }
      ],
      "stateMutability": "view",
      "type": "function"
    },
    {
      "inputs": [
        {
          "internalType": "uint256",
          "name": "tokenId",
          "type": "uint256"
        }
      ],
      "name": "tokenURI",
      "outputs": [
        {
          "internalType": "string",
          "name": "",
          "type": "string"
        }
      ],
      "stateMutability": "view",
      "type": "function"
    },
    {
      "inputs": [],
      "name": "totalSupply",
      "outputs": [
        {
          "internalType": "uint256",
          "name": "",
          "type": "uint256"
        }
      ],
      "stateMutability": "view",
      "type": "function"
    },
    {
      "inputs": [
        {
          "internalType": "address",
          "name": "from",
          "type": "address"
        },
        {
          "internalType": "address",
          "name": "to",
          "type": "address"
        },
        {
          "internalType": "uint256",
          "name": "tokenId",
          "type": "uint256"
        }
      ],
      "name": "transferFrom",
      "outputs": [],
      "stateMutability": "nonpayable",
      "type": "function"
    },
    {
      "inputs": [
        {
          "internalType": "address",
          "name": "newOwner",
          "type": "address"
        }
      ],
      "name": "transferOwnership",
      "outputs": [],
      "stateMutability": "nonpayable",
      "type": "function"
    },
    {
      "inputs": [],
      "name": "unPause",
      "outputs": [],
      "stateMutability": "nonpayable",
      "type": "function"
    },
    {
      "inputs": [],
      "name": "withdrawMoney",
      "outputs": [],
      "stateMutability": "nonpayable",
      "type": "function"
    }
  ],
  "bytecode": {
    "object": "0x60806040523480156200001157600080fd5b506040805180820182526007815266223932b0b6b2b960c91b60208083019182528351808501909452600384526244524d60e81b9084015281519192916200005c91600291620000ee565b50805162000072906003906020840190620000ee565b5050600080555062000084336200009c565b6008805460ff60a01b191690556001600955620001d1565b600880546001600160a01b038381166001600160a01b0319831681179093556040519116919082907f8be0079c531659141344cd1fd0a4f28419497f9722a3daafe3b4186f6b6457e090600090a35050565b828054620000fc9062000194565b90600052602060002090601f0160209004810192826200012057600085556200016b565b82601f106200013b57805160ff19168380011785556200016b565b828001600101855582156200016b579182015b828111156200016b5782518255916020019190600101906200014e565b50620001799291506200017d565b5090565b5b808211156200017957600081556001016200017e565b600181811c90821680620001a957607f821691505b60208210811415620001cb57634e487b7160e01b600052602260045260246000fd5b50919050565b61237780620001e16000396000f3fe6080604052600436106101f95760003560e01c806386700b591161010d578063c87b56dd116100a0578063f2fde38b1161006f578063f2fde38b146105dc578063f43a8bb2146105fc578063f734eb9f14610612578063f7b188a514610678578063ff4c61301461068d57600080fd5b8063c87b56dd14610540578063d63dd70114610560578063e836e8e614610573578063e985e9c51461059357600080fd5b8063a22cb465116100dc578063a22cb465146104cb578063a64b6c38146104eb578063ac4460021461050b578063b88d4fde1461052057600080fd5b806386700b59146104245780638da5cb5b1461044457806392288f4c1461046257806395d89b41146104b657600080fd5b806347fa1e75116101905780636a7aa3cf1161015f5780636a7aa3cf1461039a57806370a08231146103ba578063715018a6146103da5780637cb64759146103ef5780638456cb591461040f57600080fd5b806347fa1e751461032857806355f804b31461033b5780635c975abb1461035b5780636352211e1461037a57600080fd5b806318160ddd116101cc57806318160ddd146102af57806323b872dd146102d257806342842e0e146102f257806344f9029d1461031257600080fd5b806301ffc9a7146101fe57806306fdde0314610233578063081812fc14610255578063095ea7b31461028d575b600080fd5b34801561020a57600080fd5b5061021e610219366004611cb1565b6106ff565b60405190151581526020015b60405180910390f35b34801561023f57600080fd5b50610248610751565b60405161022a9190611d26565b34801561026157600080fd5b50610275610270366004611d39565b6107e3565b6040516001600160a01b03909116815260200161022a565b34801561029957600080fd5b506102ad6102a8366004611d6e565b610827565b005b3480156102bb57600080fd5b50600154600054035b60405190815260200161022a565b3480156102de57600080fd5b506102ad6102ed366004611d98565b6108c7565b3480156102fe57600080fd5b506102ad61030d366004611d98565b610a65565b34801561031e57600080fd5b506102c4600a5481565b6102ad610336366004611deb565b610a85565b34801561034757600080fd5b506102ad610356366004611e6e565b610d6d565b34801561036757600080fd5b50600854600160a01b900460ff1661021e565b34801561038657600080fd5b50610275610395366004611d39565b610d81565b3480156103a657600080fd5b506102ad6103b5366004611ef3565b610d8c565b3480156103c657600080fd5b506102c46103d5366004611f2d565b610dee565b3480156103e657600080fd5b506102ad610e3c565b3480156103fb57600080fd5b506102ad61040a366004611d39565b610e50565b34801561041b57600080fd5b506102ad610e5d565b34801561043057600080fd5b506102ad61043f366004611f48565b610e6d565b34801561045057600080fd5b506008546001600160a01b0316610275565b34801561046e57600080fd5b50600f5460105461049191906001600160401b0380821691600160401b90041683565b604080519384526001600160401b03928316602085015291169082015260600161022a565b3480156104c257600080fd5b50610248610ecb565b3480156104d757600080fd5b506102ad6104e6366004611f95565b610eda565b3480156104f757600080fd5b506102ad610506366004611fd1565b610f70565b34801561051757600080fd5b506102ad610fb0565b34801561052c57600080fd5b506102ad61053b366004612013565b611072565b34801561054c57600080fd5b5061024861055b366004611d39565b6110bc565b6102ad61056e3660046120ee565b611141565b34801561057f57600080fd5b506102ad61058e366004611deb565b61131f565b34801561059f57600080fd5b5061021e6105ae366004612109565b6001600160a01b03918216600090815260076020908152604080832093909416825291909152205460ff1690565b3480156105e857600080fd5b506102ad6105f7366004611f2d565b61152f565b34801561060857600080fd5b506102c461138881565b34801561061e57600080fd5b50600e5461064c9063ffffffff8116906001600160401b036401000000008204811691600160601b90041683565b6040805163ffffffff90941684526001600160401b03928316602085015291169082015260600161022a565b34801561068457600080fd5b506102ad6115a8565b34801561069957600080fd5b50600c54600d546106cb919063ffffffff8116906001600160401b036401000000008204811691600160601b90041684565b6040805194855263ffffffff90931660208501526001600160401b039182169284019290925216606082015260800161022a565b60006301ffc9a760e01b6001600160e01b03198316148061073057506380ac58cd60e01b6001600160e01b03198316145b8061074b5750635b5e139f60e01b6001600160e01b03198316145b92915050565b60606002805461076090612133565b80601f016020809104026020016040519081016040528092919081815260200182805461078c90612133565b80156107d95780601f106107ae576101008083540402835291602001916107d9565b820191906000526020600020905b8154815290600101906020018083116107bc57829003601f168201915b5050505050905090565b60006107ee826115b8565b61080b576040516333d1c03960e21b815260040160405180910390fd5b506000908152600660205260409020546001600160a01b031690565b600061083282610d81565b9050336001600160a01b0382161461086b5761084e81336105ae565b61086b576040516367d9dca160e11b815260040160405180910390fd5b60008281526006602052604080822080546001600160a01b0319166001600160a01b0387811691821790925591518593918516917f8c5be1e5ebec7d5bd14f71427d1e84f3dd0314c0f7b2291e5b200ac8c7c3b92591a4505050565b60006108d2826115df565b9050836001600160a01b0316816001600160a01b0316146109055760405162a1148160e81b815260040160405180910390fd5b60008281526006602052604090208054338082146001600160a01b038816909114176109525761093586336105ae565b61095257604051632ce44b5f60e11b815260040160405180910390fd5b6001600160a01b03851661097957604051633a954ecd60e21b815260040160405180910390fd5b6109868686866001611640565b801561099157600082555b6001600160a01b038681166000908152600560205260408082208054600019019055918716808252919020805460010190554260a01b17600160e11b17600085815260046020526040902055600160e11b8316610a1c5760018401600081815260046020526040902054610a1a576000548114610a1a5760008181526004602052604090208490555b505b83856001600160a01b0316876001600160a01b03167fddf252ad1be2c89b69c2b068fc378daa952ba7f163c4a11628f55a4df523b3ef60405160405180910390a4505050505050565b610a8083838360405180602001604052806000815250611072565b505050565b60026009541415610ab15760405162461bcd60e51b8152600401610aa89061216e565b60405180910390fd5b6002600955600d546001600160401b03640100000000820481169163ffffffff811691600160601b9091041682610b2a5760405162461bcd60e51b815260206004820181905260248201527f77686974656c6973742073616c6520686173206e6f7420626567756e207965746044820152606401610aa8565b8115801590610b395750814210155b610b855760405162461bcd60e51b815260206004820152601960248201527f70726573616c6520686173206e6f7420626567756e20796574000000000000006044820152606401610aa8565b612710846001600160401b0316610b9f6001546000540390565b610ba991906121bb565b1115610bc75760405162461bcd60e51b8152600401610aa8906121d3565b6040516001600160601b03193360601b166020820152600090603401604051602081830303815290604052805190602001209050610c3c87878080602002602001604051908101604052809392919081815260200183836020028082843760009201919091525050600c54915084905061164d565b610c885760405162461bcd60e51b815260206004820152601760248201527f696e76616c69642077686974656c6973742070726f6f660000000000000000006044820152606401610aa8565b6001600160401b03821685610cb6335b6001600160a01b031660009081526005602052604090205460c01c90565b610cc091906121ff565b6001600160401b03161115610ce75760405162461bcd60e51b8152600401610aa89061222a565b610cfa33866001600160401b0316611663565b610d443386610d0833610c98565b610d1291906121ff565b6001600160a01b03909116600090815260056020526040902080546001600160c01b031660c09290921b919091179055565b610d5f610d5a6001600160401b0387168661225a565b611681565b505060016009555050505050565b610d75611707565b610a80600b8383611c02565b600061074b826115df565b610d94611707565b600d805463ffffffff19169055600e805463ffffffff949094166001600160601b0319909416939093176401000000006001600160401b03938416021767ffffffffffffffff60601b1916600160601b9190921602179055565b60006001600160a01b038216610e17576040516323d3ad8160e21b815260040160405180910390fd5b506001600160a01b03166000908152600560205260409020546001600160401b031690565b610e44611707565b610e4e6000611761565b565b610e58611707565b600c55565b610e65611707565b610e4e6117b3565b610e75611707565b600c93909355600d805463ffffffff939093166001600160601b0319909316929092176401000000006001600160401b03928316021767ffffffffffffffff60601b1916600160601b9190931602919091179055565b60606003805461076090612133565b6001600160a01b038216331415610f045760405163b06307db60e01b815260040160405180910390fd5b3360008181526007602090815260408083206001600160a01b03871680855290835292819020805460ff191686151590811790915590519081529192917f17307eab39ab6107e8899845ad3d59bd9653f200f220920489ca2b5937696c31910160405180910390a35050565b610f78611707565b600f91909155601080546001600160401b03909216600160401b026fffffffffffffffff000000000000000019909216919091179055565b610fb8611707565b60026009541415610fdb5760405162461bcd60e51b8152600401610aa89061216e565b6002600955604051600090339047908381818185875af1925050503d8060008114611022576040519150601f19603f3d011682016040523d82523d6000602084013e611027565b606091505b505090508061106a5760405162461bcd60e51b815260206004820152600f60248201526e1d1c985b9cd9995c8819985a5b1959608a1b6044820152606401610aa8565b506001600955565b61107d8484846108c7565b6001600160a01b0383163b156110b65761109984848484611813565b6110b6576040516368d2bf6b60e11b815260040160405180910390fd5b50505050565b60606110c7826115b8565b6110e457604051630a14c4b560e41b815260040160405180910390fd5b60006110ee6118fb565b905080516000141561110f576040518060200160405280600081525061113a565b806111198461190a565b60405160200161112a929190612279565b6040516020818303038152906040525b9392505050565b600260095414156111645760405162461bcd60e51b8152600401610aa89061216e565b6002600955600e546001600160401b03640100000000820481169163ffffffff811691600160601b90910416826111dd5760405162461bcd60e51b815260206004820152601d60248201527f7075626c69632073616c6520686173206e6f7420626567756e207965740000006044820152606401610aa8565b81158015906111ec5750814210155b6112385760405162461bcd60e51b815260206004820152601d60248201527f7075626c69632073616c6520686173206e6f7420626567756e207965740000006044820152606401610aa8565b612710846001600160401b03166112526001546000540390565b61125c91906121bb565b111561127a5760405162461bcd60e51b8152600401610aa8906121d3565b806001600160401b0316846001600160401b0316611298610c983390565b3360009081526005602052604090819020546001600160401b0392831692911c166112c3919061229f565b6112cd91906121bb565b11156112eb5760405162461bcd60e51b8152600401610aa89061222a565b6112fe33856001600160401b0316611663565b611314610d5a6001600160401b0386168561225a565b505060016009555050565b600260095414156113425760405162461bcd60e51b8152600401610aa89061216e565b6002600955601054600160401b90046001600160401b0316806113ba5760405162461bcd60e51b815260206004820152602a60248201527f4f776e65722069732079657420746f20736574207175616e7469747920666f726044820152692065616368206465767360b01b6064820152608401610aa8565b612710826001600160401b03166113d46001546000540390565b6113de91906121bb565b11156113fc5760405162461bcd60e51b8152600401610aa8906121d3565b6040516001600160601b03193360601b16602082015260009060340160405160208183030381529060405280519060200120905061147185858080602002602001604051908101604052809392919081815260200183836020028082843760009201919091525050600f54915084905061164d565b6114bd5760405162461bcd60e51b815260206004820152601860248201527f696e76616c6964205465616d4d656d6265722070726f6f6600000000000000006044820152606401610aa8565b6001600160401b038216836114d133610c98565b6114db91906121ff565b6001600160401b031611156115025760405162461bcd60e51b8152600401610aa89061222a565b61151533846001600160401b0316611663565b6115233384610d0833610c98565b50506001600955505050565b611537611707565b6001600160a01b03811661159c5760405162461bcd60e51b815260206004820152602660248201527f4f776e61626c653a206e6577206f776e657220697320746865207a65726f206160448201526564647265737360d01b6064820152608401610aa8565b6115a581611761565b50565b6115b0611707565b610e4e611959565b600080548210801561074b575050600090815260046020526040902054600160e01b161590565b60008160005481101561162757600081815260046020526040902054600160e01b8116611625575b8061113a575060001901600081815260046020526040902054611607565b505b604051636f96cda160e11b815260040160405180910390fd5b611648611995565b6110b6565b60008261165a85846119e2565b14949350505050565b61167d828260405180602001604052806000815250611a2f565b5050565b803410156116c95760405162461bcd60e51b81526020600482015260156024820152740dccacac840e8de40e6cadcc840dadee4ca408aa89605b1b6044820152606401610aa8565b803411156115a557336108fc6116df833461229f565b6040518115909202916000818181858888f1935050505015801561167d573d6000803e3d6000fd5b6008546001600160a01b03163314610e4e5760405162461bcd60e51b815260206004820181905260248201527f4f776e61626c653a2063616c6c6572206973206e6f7420746865206f776e65726044820152606401610aa8565b600880546001600160a01b038381166001600160a01b0319831681179093556040519116919082907f8be0079c531659141344cd1fd0a4f28419497f9722a3daafe3b4186f6b6457e090600090a35050565b6117bb611995565b6008805460ff60a01b1916600160a01b1790557f62e78cea01bee320cd4e420270b5ea74000d11b0c9f74754ebdbfc544b05a2586117f63390565b6040516001600160a01b03909116815260200160405180910390a1565b604051630a85bd0160e11b81526000906001600160a01b0385169063150b7a02906118489033908990889088906004016122b6565b6020604051808303816000875af1925050508015611883575060408051601f3d908101601f19168201909252611880918101906122f3565b60015b6118de573d8080156118b1576040519150601f19603f3d011682016040523d82523d6000602084013e6118b6565b606091505b5080516118d6576040516368d2bf6b60e11b815260040160405180910390fd5b805181602001fd5b6001600160e01b031916630a85bd0160e11b149050949350505050565b6060600b805461076090612133565b604080516080810191829052607f0190826030600a8206018353600a90045b801561194757600183039250600a81066030018353600a9004611929565b50819003601f19909101908152919050565b611961611a9c565b6008805460ff60a01b191690557f5db9ee0a495bf2e6ff9c91a7834c1ba4fdd244a5e8aa4e537bd38aeae4b073aa336117f6565b600854600160a01b900460ff1615610e4e5760405162461bcd60e51b815260206004820152601060248201526f14185d5cd8589b194e881c185d5cd95960821b6044820152606401610aa8565b600081815b8451811015611a2757611a1382868381518110611a0657611a06612310565b6020026020010151611aec565b915080611a1f81612326565b9150506119e7565b509392505050565b611a398383611b18565b6001600160a01b0383163b15610a80576000548281035b611a636000868380600101945086611813565b611a80576040516368d2bf6b60e11b815260040160405180910390fd5b818110611a50578160005414611a9557600080fd5b5050505050565b600854600160a01b900460ff16610e4e5760405162461bcd60e51b815260206004820152601460248201527314185d5cd8589b194e881b9bdd081c185d5cd95960621b6044820152606401610aa8565b6000818310611b0857600082815260208490526040902061113a565b5060009182526020526040902090565b6000546001600160a01b038316611b4157604051622e076360e81b815260040160405180910390fd5b81611b5f5760405163b562e8dd60e01b815260040160405180910390fd5b611b6c6000848385611640565b6001600160a01b038316600081815260056020526040902080546801000000000000000185020190554260a01b6001841460e11b1717600082815260046020526040902055808281015b6040516001830192906001600160a01b038716906000907fddf252ad1be2c89b69c2b068fc378daa952ba7f163c4a11628f55a4df523b3ef908290a4808210611bb65760005550505050565b828054611c0e90612133565b90600052602060002090601f016020900481019282611c305760008555611c76565b82601f10611c495782800160ff19823516178555611c76565b82800160010185558215611c76579182015b82811115611c76578235825591602001919060010190611c5b565b50611c82929150611c86565b5090565b5b80821115611c825760008155600101611c87565b6001600160e01b0319811681146115a557600080fd5b600060208284031215611cc357600080fd5b813561113a81611c9b565b60005b83811015611ce9578181015183820152602001611cd1565b838111156110b65750506000910152565b60008151808452611d12816020860160208601611cce565b601f01601f19169290920160200192915050565b60208152600061113a6020830184611cfa565b600060208284031215611d4b57600080fd5b5035919050565b80356001600160a01b0381168114611d6957600080fd5b919050565b60008060408385031215611d8157600080fd5b611d8a83611d52565b946020939093013593505050565b600080600060608486031215611dad57600080fd5b611db684611d52565b9250611dc460208501611d52565b9150604084013590509250925092565b80356001600160401b0381168114611d6957600080fd5b600080600060408486031215611e0057600080fd5b83356001600160401b0380821115611e1757600080fd5b818601915086601f830112611e2b57600080fd5b813581811115611e3a57600080fd5b8760208260051b8501011115611e4f57600080fd5b602092830195509350611e659186019050611dd4565b90509250925092565b60008060208385031215611e8157600080fd5b82356001600160401b0380821115611e9857600080fd5b818501915085601f830112611eac57600080fd5b813581811115611ebb57600080fd5b866020828501011115611ecd57600080fd5b60209290920196919550909350505050565b803563ffffffff81168114611d6957600080fd5b600080600060608486031215611f0857600080fd5b611f1184611edf565b9250611f1f60208501611dd4565b9150611e6560408501611dd4565b600060208284031215611f3f57600080fd5b61113a82611d52565b60008060008060808587031215611f5e57600080fd5b84359350611f6e60208601611edf565b9250611f7c60408601611dd4565b9150611f8a60608601611dd4565b905092959194509250565b60008060408385031215611fa857600080fd5b611fb183611d52565b915060208301358015158114611fc657600080fd5b809150509250929050565b60008060408385031215611fe457600080fd5b82359150611ff460208401611dd4565b90509250929050565b634e487b7160e01b600052604160045260246000fd5b6000806000806080858703121561202957600080fd5b61203285611d52565b935061204060208601611d52565b92506040850135915060608501356001600160401b038082111561206357600080fd5b818701915087601f83011261207757600080fd5b81358181111561208957612089611ffd565b604051601f8201601f19908116603f011681019083821181831017156120b1576120b1611ffd565b816040528281528a60208487010111156120ca57600080fd5b82602086016020830137600060208483010152809550505050505092959194509250565b60006020828403121561210057600080fd5b61113a82611dd4565b6000806040838503121561211c57600080fd5b61212583611d52565b9150611ff460208401611d52565b600181811c9082168061214757607f821691505b6020821081141561216857634e487b7160e01b600052602260045260246000fd5b50919050565b6020808252601f908201527f5265656e7472616e637947756172643a207265656e7472616e742063616c6c00604082015260600190565b634e487b7160e01b600052601160045260246000fd5b600082198211156121ce576121ce6121a5565b500190565b60208082526012908201527172656163686564206d617820737570706c7960701b604082015260600190565b60006001600160401b03808316818516808303821115612221576122216121a5565b01949350505050565b60208082526016908201527563616e206e6f74206d696e742074686973206d616e7960501b604082015260600190565b6000816000190483118215151615612274576122746121a5565b500290565b6000835161228b818460208801611cce565b835190830190612221818360208801611cce565b6000828210156122b1576122b16121a5565b500390565b6001600160a01b03858116825284166020820152604081018390526080606082018190526000906122e990830184611cfa565b9695505050505050565b60006020828403121561230557600080fd5b815161113a81611c9b565b634e487b7160e01b600052603260045260246000fd5b600060001982141561233a5761233a6121a5565b506001019056fea2646970667358221220f21b8245edff0d5bc2059a5a2321a30ce970cbcf43bf29f944411dba45d4384a64736f6c634300080a0033",
    "linkReferences": {}
  }
}